:0400000090EF10F07D
:100008003901A3AF02D0152AA39FA4A102D01B2AAD
:04001800A49111009E
:0E001C00550E3A01BF6FAA0EBF6FBF911200C2
:0E002A00550E3A01BF6FAA0EBF6FBF811200C4
:0C003800000E3D01F9BF010E006E120029
:04004400F9DF1200CE
:1000480000017151220803E2006A2BEF04F072519B
:10005800000AD8A421D1745301E0DCDF8CD0600001
:10006800CFF100FA15D16000CFF101FA11D160008B
:10007800CFF102FA0DD16000CFF103FA09D1600087
:10008800CFF104FA05D16000CFF105FA01D1600083
:10009800CFF106FAFDD06000CFF107FAF9D0600081
:1000A800CFF108FAF5D06000CFF109FAF1D060007D
:1000B800CFF10AFAEDD06000CFF10BFAE9D0600079
:1000C800CFF10CFAE5D06000CFF10DFAE1D0600075
:1000D800CFF10EFADDD06000CFF10FFAD9D0600071
:1000E800CFF110FAD5D06000CFF111FAD1D060006D
:1000F800CFF112FACDD06000CFF113FAC9D0600069
:10010800CFF114FAC5D06000CFF115FAC1D0600064
:10011800CFF116FABDD06000CFF117FAB9D0600060
:10012800CFF118FAB5D06000CFF119FAB1D060005C
:10013800CFF11AFAADD06000CFF11BFAA9D0600058
:10014800CFF11CFAA5D06000CFF11DFAA1D0600054
:10015800CFF11EFA9DD06000CFF11FFA99D0600050
:10016800CFF120FA95D06000CFF121FA91D060004C
:10017800CFF122FA8DD000017151000AD8B46FD79F
:100188007151010AD8B46FD77151020AD8B46FD728
:100198007151030AD8B46FD77151040AD8B46FD714
:1001A8007151050AD8B46FD77151060AD8B46FD700
:1001B8007151070AD8B46FD77151080AD8B46FD7EC
:1001C8007151090AD8B46FD771510A0AD8B46FD7D8
:1001D80071510B0AD8B46FD771510C0AD8B46FD7C4
:1001E80071510D0AD8B46FD771510E0AD8B46FD7B0
:1001F80071510F0AD8B46FD77151100AD8B46FD79C
:100208007151110AD8B46FD77151120AD8B46FD787
:100218007151130AD8B46FD77151140AD8B46FD773
:100228007151150AD8B46FD77151160AD8B46FD75F
:100238007151170AD8B46FD77151180AD8B46FD74B
:100248007151190AD8B46FD771511A0AD8B46FD737
:1002580071511B0AD8B46FD771511C0AD8B46FD723
:1002680071511D0AD8B46FD771511E0AD8B46FD70F
:1002780071511F0AD8B46FD77151200AD8B46FD7FB
:100288007151210AD8B46FD77151220AD8B46FD7E7
:100298000001745301E0C5DE00017251010AD8A4BF
:1002A80051D1745301E0B6DEA4D06000C7F1C0FAA2
:1002B80045D16000C7F1C1FA41D16000C7F1C2FA67
:1002C8003DD16000C7F1C3FA39D16000C7F1C4FA63
:1002D80035D16000C7F1C5FA31D16000C7F1C6FA5F
:1002E8002DD16000C7F1C7FA29D16000C7F1C8FA5B
:1002F80025D16000C7F1C9FA21D16000C7F1CAFA57
:100308001DD16000C7F1CBFA19D16000C7F1CCFA52
:1003180015D16000C7F1CDFA11D16000C7F1CEFA4E
:100328000DD16000C7F1CFFA09D16000C7F1D0FA4A
:1003380005D16000C7F1D1FA01D16000C7F1D2FA46
:10034800FDD06000C7F1D3FAF9D06000C7F1D4FA44
:10035800F5D06000C7F1D5FAF1D06000C7F1D6FA40
:10036800EDD06000C7F1D7FAE9D06000C7F1D8FA3C
:10037800E5D06000C7F1D9FAE1D06000C7F1DAFA38
:10038800DDD06000C7F1DBFAD9D06000C7F1DCFA34
:10039800D5D06000C7F1DDFAD1D06000C7F1DEFA30
:1003A800CDD06000C7F1DFFAC9D06000C7F1E0FA2C
:1003B800C5D06000C7F1E1FAC1D06000C7F1E2FA28
:1003C800BDD06000C7F1E3FAB9D06000C7F1E4FA24
:1003D800B5D06000C7F1E5FAB1D06000C7F1E6FA20
:1003E800ADD06000C7F1E8FAA9D06000C7F1E9FA1A
:1003F800A5D000017351000AD8B457D77351010A28
:10040800D8B457D77351020AD8B457D77351030ACF
:10041800D8B457D77351040AD8B457D77351050ABB
:10042800D8B457D77351060AD8B457D77351070AA7
:10043800D8B457D77351080AD8B457D77351090A93
:10044800D8B457D773510A0AD8B457D773510B0A7F
:10045800D8B457D773510C0AD8B457D773510D0A6B
:10046800D8B457D773510E0AD8B457D773510F0A57
:10047800D8B457D77351100AD8B457D77351110A43
:10048800D8B457D77351120AD8B457D77351130A2F
:10049800D8B457D77351140AD8B457D77351150A1B
:1004A800D8B457D77351160AD8B457D77351170A07
:1004B800D8B457D77351180AD8B457D77351190AF3
:1004C800D8B457D773511A0AD8B457D773511B0ADF
:1004D800D8B457D773511C0AD8B457D773511D0ACB
:1004E800D8B457D773511E0AD8B457D773511F0AB7
:1004F800D8B457D77351200AD8B457D77351210AA3
:10050800D8B457D77351220AD8B457D77351230A8E
:10051800D8B457D77351240AD8B457D77351250A7A
:10052800D8B457D77351260AD8B457D77351270A66
:10053800D8B457D77351280AD8B457D70001745381
:1005480001E06FDDF5D0000172B102D0C29001D098
:10055800C2807BD1000172B102D0C29201D0C282A6
:1005680074D1000172B102D0C29401D0C2846DD19D
:10057800000172B102D0C29601D0C28666D10001D4
:1005880072B102D0C29801D0C2885FD1000172B1A5
:1005980002D0C29A01D0C28A58D1000172B102D0E9
:1005A800C29C01D0C28C51D1000172B102D0C29E4E
:1005B80001D0C28E4AD1000172B102D0C39001D0DD
:1005C800C38043D1000172B102D0C39201D0C3826B
:1005D8003CD1000172B102D0C39401D0C38435D19B
:1005E800000172B102D0C39601D0C3862ED100019A
:1005F80072B102D0C39801D0C38827D1000172B16B
:1006080002D0C39A01D0C38A20D1000172B102D0AE
:10061800C39C01D0C38C19D1000172B102D0C39E12
:1006280001D0C38E12D1000172B102D0C49001D0A2
:10063800C4800BD1000172B102D0C49201D0C4822F
:1006480004D1000172B102D0C49401D0C484FDD099
:10065800000172B102D0C49601D0C486F6D0000160
:1006680072B102D0C49801D0C488EFD0000172B131
:1006780002D0C49A01D0C48AE8D0000172B102D075
:10068800C49C01D0C48CE1D0000172B102D0C49ED8
:1006980001D0C48EDAD0000172B102D0C59001D069
:1006A800C580D3D0000172B102D0C59201D0C582F5
:1006B800CCD0000172B102D0C59401D0C584C5D098
:1006C800000172B102D0C59601D0C586BED0000126
:1006D80072B102D0C59801D0C588B7D0000172B1F7
:1006E80002D0C59A01D0C58AB0D0000172B102D03B
:1006F800C59C01D0C58CA9D0000172B102D0C59E9D
:1007080001D0C58EA2D0000172B102D0C69001D02E
:10071800C6809BD0000172B102D0C69201D0C682B9
:1007280094D0000172B102D0C69401D0C6848DD095
:1007380000017151000AD8B406D77151010AD8B422
:1007480009D77151020AD8B40CD77151030AD8B429
:100758000FD77151040AD8B412D77151050AD8B409
:1007680015D77151060AD8B418D77151070AD8B4E9
:100778001BD77151080AD8B41ED77151090AD8B4C9
:1007880021D771510A0AD8B424D771510B0AD8B4A9
:1007980027D771510C0AD8B42AD771510D0AD8B489
:1007A8002DD771510E0AD8B430D771510F0AD8B469
:1007B80033D77151100AD8B436D77151110AD8B449
:1007C80039D77151120AD8B43CD77151130AD8B429
:1007D8003FD77151140AD8B442D77151150AD8B409
:1007E80045D77151160AD8B448D77151170AD8B4E9
:1007F8004BD77151180AD8B44ED77151190AD8B4C9
:1008080051D771511A0AD8B454D771511B0AD8B4A8
:1008180057D771511C0AD8B45AD771511D0AD8B488
:100828005DD771511E0AD8B460D771511F0AD8B468
:1008380063D77151200AD8B466D77151210AD8B448
:1008480069D77151220AD8B46CD7FF0E006E120016
:1008580022EC00F0005202E10000FAD760006FF1CC
:04086800EAFD120093
:10086C005BC071F05CC072F05DC073F0010E0001F2
:08087C00746F24EC00F012007F
:100884000450085E0550D8A0053C095E0650D8A067
:10089400063C0A5E0750D8A0073C0B5E0336070EE1
:1008A4000C6E0334083609360A360B36045003A09E
:1008B4000ED0085E0550D8A0053C095E0650D8A0AD
:1008C400063C0A5E0750D8A0073C0B5E0DD00826F4
:1008D4000550D8B0053C09260650D8B0063C0A2677
:1008E4000750D8B0073C0B2603360C2EDAD7023457
:1008F400083609360A360B36045003A00ED0085EBB
:100904000550D8A0053C095E0650D8A0063C0A5EF6
:100914000750D8A0073C0B5E0DD008260550D8B070
:10092400053C09260650D8B0063C0A260750D8B024
:10093400073C0B260236070E0C6E023408360936C5
:100944000A360B36045002A00ED0085E0550D8A01B
:10095400053C095E0650D8A0063C0A5E0750D8A0A4
:10096400073C0B5E0DD008260550D8B0053C09267F
:100974000650D8B0063C0A260750D8B0073C0B26D0
:1009840002360C2EDAD70134083609360A360B360D
:10099400045002A00ED0085E0550D8A0053C095EA4
:1009A4000650D8A0063C0A5E0750D8A0073C0B5E50
:1009B4000DD008260550D8B0053C09260650D8B0FD
:1009C400063C0A260750D8B0073C0B260136070E12
:1009D4000C6E0134083609360A360B36045001A071
:1009E4000ED0085E0550D8A0053C095E0650D8A07C
:1009F400063C0A5E0750D8A0073C0B5E0DD00826C3
:100A04000550D8B0053C09260650D8B0063C0A2645
:100A14000750D8B0073C0B2601360C2EDAD7003429
:100A2400083609360A360B36045001A00ED0085E8B
:100A34000550D8A0053C095E0650D8A0063C0A5EC5
:100A44000750D8A0073C0B5E0DD008260550D8B03F
:100A5400053C09260650D8B0063C0A260750D8B0F3
:100A6400073C0B260036070E0C6E00340836093698
:100A74000A360B36045000A00ED0085E0550D8A0EC
:100A8400053C095E0650D8A0063C0A5E0750D8A073
:100A9400073C0B5E0DD008260550D8B0053C09264E
:100AA4000650D8B0063C0A260750D8B0073C0B269F
:100AB40000360C2EDAD700B00ED0045008260550AC
:100AC400D8B0053C09260650D8B0063C0A26075083
:080AD400D8B0073C0B2612000C
:100ADC000B1E0A1E091E081E082AD8B4092AD8B4EF
:080AEC000A2AD8B40B2A1200FB
:100AF400000E585C02E10A0E575C0AE2080E0C6E06
:100B0400A70E0D6E0D2EFED70C2EFCD70000000094
:100B1400000E585C02E1140E575C0AE2080E0C6EDB
:100B2400A70E0D6E0D2EFED70C2EFCD70000000074
:100B3400000E585C02E1280E575C0AE2070E0C6EA8
:100B4400B20E0D6E0D2EFED70C2EFCD70000000049
:100B5400000E585C02E1500E575C0AE2060E0C6E61
:100B6400BD0E0D6E0D2EFED70C2EFCD7000000001E
:100B7400000E585C02E1A00E575C09E2030E0C6EF5
:100B8400DE0E0D6E0D2EFED70C2EFCD70000000ECF
:100B9400585C02E10A0E575C0AE2060E0C6EBD0EAA
:100BA4000D6E0D2EFED70C2EFCD700000000000E9B
:100BB4005A5C02E1140E595C0AE2060E0C6EBD0E7C
:100BC4000D6E0D2EFED70C2EFCD700000000000E7B
:100BD4005A5C02E1280E595C09E2050E0C6EC80E3F
:100BE4000D6E0D2EFED70C2EFCD70000000E5A5CA5
:100BF40002E1500E595C09E2040E0C6ED30E0D6E28
:100C04000D2EFED70C2EFCD70000000E5A5C02E11C
:100C1400A00E595C09E2020E0C6EE90E0D6E0D2E4B
:100C2400FED70C2EFCD70000016A026A800E02185F
:100C3400006E800E1918005C02E11850015C09E294
:100C4400040E0D6E0D2EFED700000000014A022A8C
:040C5400EDD71200C6
:080C580057C05BF0FDDD120046
:100C60003D01F7B302D0D88001D0D890000ED8B0A3
:060C7000010E006E1200EF
:100C7600220E0C6E086A096A0A6A0B6A0C06D8B458
:100C86001FD0D8900B320A320932083203320232B0
:100C960001320032D8A0F2D70C06D8B409D00450DD
:100CA60008260550092206500A2207500B22EAD7C9
:100CB600045008260550092206500A2207500B2226
:020CC60012001A
:100CC8000B6A0A6A096A005004026F00D0FF09F033
:100CD8006F00CCFF08F0015005026F00D0FF0BF049
:100CE8006F00CCFF0AF000500502F3500926F450BB
:100CF8000A22E86A0B2201500402F3500926F45034
:100D08000A22E86A0B2208C000F009C001F00AC0F4
:080D180002F00BC003F0120011
:100D20000450000A12E10550000A0FE10650000AC3
:100D30000CE10750000A09E1FF0E006EFF0E016E84
:100D4000FF0E026E7F0E036E97D00C6A07BE0C2A50
:100D50000D6A0B6A0A6A096A086A035002100110D8
:100D60000010D8B484D0035007180E6E0EBE0D1EAE
:100D700007AE0BD0041E051E061E071E042AD8B49B
:100D8000052AD8B4062AD8B4072A03AE0BD0001E11
:100D9000011E021E031E002AD8B4012AD8B4022A5A
:100DA000D8B4032A035007100E6E0EBE1CD06ADDA5
:100DB0000CBE36D00DAE5BD0001E011E021E031EFF
:100DC000002AD8B4012AD8B4022AD8B4032A081EAB
:100DD000091E0A1E0B1E082AD8B4092AD8B40A2AEA
:100DE000D8B40B2A44D007AE15D003BE0DD00350A3
:100DF0000B6E02500A6E0150096E0050086E036AB5
:100E0000026A016A006AD6D7036A026A016A006A46
:100E1000002A000C031E021E011E001E0C8EC7D7E6
:100E2000082AD8B4092AD8B40A2AD8B40B2A0450FC
:100E3000085CD8A4BFD70550095CD8A4BBD706501E
:100E40000A5CD8A4B7D707500B5CD8A4B3D70B6AF9
:100E50000A6A096A086A002AD8B4012AD8B4022AA0
:100E6000D8B4032A03AEA6D70E6A0E88FF0C0E6A0A
:0A0E70000CA001D033DE000F1200C9
:100E7A0057500308D8A0576A58500308D8A0586A90
:100E8A00F00E3D01F2175750F213300EF21358C00C
:100E9A0000F00036009000360090003600900036D0
:0A0EAA0000900050F413F38F1200C3
:100EB40061C030F062C031F063C032F064C033F01E
:100EC40065C028F066C029F067C02AF068C02BF01E
:100ED40069C02CF06AC02DF06BC02EF06CC02FF0EE
:100EE4006DC034F06EC035F06FC036F070C037F0AE
:020EF4001200EA
:0C0EF6006F00A0F701F001C000F0120036
:100F0200160E5B6E5C6A130E5D6EAFDC170E5B6EC7
:0C0F1200010E5C6E250E5D6EA8DC120066
:100F1E00BE90016A026A3B50025C02E13A50015CEB
:100F2E0017E2BA9A040E0C6ED30E0D6E0D2EFED76E
:100F3E000C2EFCD70000BA8A040E0C6ED30E0D6E6A
:100F4E000D2EFED70C2EFCD70000014A022AE3D745
:020F5E0012007F
:100F6000000E3B1802E1000E3A1802E1BE9001D0DB
:100F7000BE803E6A3F6A3D503F5C02E13C503E5CB1
:100F800021E2BA9A3EC057F03FC058F03E503C5C58
:100F9000596E3F503D585A6EADDDBA8A3EC057F08B
:100FA0003FC058F03E503C5C596E3F503D585A6E21
:100FB000A1DDCBB004D02C0E576E4EDE03D03E4ADE
:060FC0003F2AD9D7120000
:100FC60009006F00D7FFE6FF0006FAE10106F8E127
:020FD600120007
:100FD80094DFA20E0001616F130E626F000E636F43
:100FE800000E646F580E656F0C0E666F570E676FB4
:100FF800000E686F6A0E696F120E6A6F000E6B6FD3
:10100800000E6C6F440E6D6F000E6E6F000E6F6FEA
:0E101800000E706F4BDF576A586A2BDF120014
:101026003E6A3F6A3AC001F0006A3B500024026EF5
:10103600000E0120036E02C004F003C005F03CC0A0
:1010460007F0066A3D500626000E0722000E03181A
:1010560002E1000E021822E13E6A3F6A07503F5C39
:1010660002E106503E5C19E2BC86BC84040E0C6E9E
:10107600D30E0D6E0D2EFED70C2EFCD70000BC969F
:10108600BC94040E0C6ED30E0D6E0D2EFED70C2ED8
:10109600FCD700003E4A3F2AE1D725D0000E0718AC
:1010A60002E1000E06181FE13E6A3F6A05503F5CEA
:1010B60002E104503E5C17E2BD82040E0C6ED30EB4
:1010C6000D6E0D2EFED70C2EFCD70000BD92040E21
:1010D6000C6ED30E0D6E0D2EFED70C2EFCD7000017
:0810E6003E4A3F2AE3D7120045
:1010EE003A6A3B6ACAA2B9D0BE80020E0C6EE90EF5
:1010FE000D6E0D2EFED70C2EFCD70000BA9A020EE6
:10110E000C6EE90E0D6E0D2EFED70C2EFCD70000C8
:10111E00BA8ACBB001D001D0E8D7BE903A6A3B6A0A
:10112E00800E3B18006E800E070A005C02E1D00EA6
:10113E003A5C17E2020E0C6EE90E0D6E0D2EFED706
:10114E000C2EFCD70000BA9A020E0C6EE90E0D6E34
:10115E000D2EFED70C2EFCD70000BA8A3A4A3B2A37
:10116E00DFD7BC80BCB002D0BC9201D0BC82020ED4
:10117E000C6EE90E0D6E0D2EFED70C2EFCD7000058
:10118E00BC96BC94020E0C6EE90E0D6E0D2EFED7A3
:10119E000C2EFCD70000CBB4BC86CBB2BC84CBB437
:1011AE0003D0CBB201D001D0E2D7BC90BCB002D0FC
:1011BE00BC9201D0BC823A6A3B6A800E3B18006E2C
:1011CE00800E020A005C02E1580E3A5C11E2F50E46
:1011DE000D6E0D2EFED70000BC96BC94F50E0D6E56
:1011EE000D2EFED70000BC86BC843A4A3B2AE5D7BA
:1011FE00BD80020E0C6EE90E0D6E0D2EFED70C2E5E
:10120E00FCD70000BD92020E0C6EE90E0D6E0D2E77
:10121E00FED70C2EFCD70000CBB801D002D0BD8279
:10122E00E8D7BD903A6A3B6A800E3B18006E800E7E
:10123E00020A005C02E1580E3A5C0FE2F50E0D6EEA
:10124E000D2EFED70000BD92F50E0D6E0D2EFED7A3
:0C125E000000BD823A4A3B2AE7D712008C
:04126A00FADC120098
:10126E003E6A3F6A016A026A3D50025C02E13C50EE
:10127E00015CD8B08AD0000E3B1802E1010E3A187C
:10128E0003E13E4A3F2A04D0010E3E5E000E3F5A55
:10129E00800E006E800E3F18005C02E13E50070883
:1012AE0002E23E6A3F6A800E3F18006E800E005CBE
:1012BE0002E1000E3E5C04E2070E3E6E000E3F6E33
:1012CE0028D0BD8EBD9CBD9ABD9853D0BD8EBD8C11
:1012DE00BD9ABD984ED0BD9EBD8CBD9ABD9849D0CD
:1012EE00BD9EBD8CBD8ABD9844D0BD9EBD9CBD8AA1
:1012FE00BD983FD0BD9EBD9CBD8ABD883AD0BD9ED7
:10130E00BD9CBD9ABD8835D0BD8EBD9CBD9ABD8895
:10131E0030D0000E3F1802E1000E3E18D2E0000E53
:10132E003F1802E1010E3E18D1E0000E3F1802E117
:10133E00020E3E18D0E0000E3F1802E1030E3E18DA
:10134E00CFE0000E3F1802E1040E3E18CEE0000E74
:10135E003F1802E1050E3E18CDE0000E3F1802E1E7
:10136E00060E3E18CCE0000E3F1802E1070E3E18A6
:10137E00CBE0270E0C6E4B0E0D6E0D2EFED70C2EE7
:10138E00FCD70000014A022A6FD7BD9EBD9CBD9AB4
:04139E00BD981200E4
:0413A200A9DD1200AF
:1013A6003F6A406A416A426A436A446A456A466AD3
:1013B600476A486A496A4A6A4B6A4C6A4D6A4E6A83
:1013C6004F6A506A516A526A3B503D1802E13C50DE
:1013D6003A18D8A4F0D016C000F017C001F00036B5
:1013E600009001360F0E046E000E056E6ADC00C01A
:1013F60041F001C042F0000E01BEFF0E436E446E86
:1014060041500008056E42C006F0000E065605C0A3
:1014160045F006C046F03901939F000E0514036E91
:101426000650FF0B046E04C000F0016A600003F072
:10143600B7FFFF0E0514B66E938F3F6A406A000E23
:10144600405C02E13E503F5CD8B0B3D04D6A4E6A74
:10145600CBB205D02F0E576E2CEC06F0A7D0CBB42E
:1014660005D0300E576E2CEC06F0A0D0CBB605D0CA
:10147600310E576E2CEC06F099D0CBBA05D02E0E55
:10148600576E2CEC06F092D0CBB805D02D0E576EC9
:101496002CEC06F08BD015500008D8B080D03B500D
:1014A6004E5C02E13A504D5CD8B079D0BD82BC8624
:1014B600BC844D4A4E2A000E401802E1000E3F1829
:1014C60022E1060E4E5C02E1400E4D5C1CE24DC070
:1014D60051F04EC052F04D504008016E4EC002F021
:1014E600060E02560250525C02E10150515C0BE2BC
:1014F600040E0D6E0D2EFED700000000A00E512624
:10150600000E5222E8D73E04016E026A000E025A0D
:101516004050021802E101503F182BE1400E3A5CA0
:10152600016E060E3B58026E4E50025C02E14D50B3
:10153600015C1FE2516A526A400E3A5C006E060E6A
:101546003B58016E00504D5C026E01504E58036EC2
:101556000350525C02E10250515C0BE2040E0D6E28
:101566000D2EFED700000000A00E5126000E5222BE
:10157600E3D73901939F000E4514036E4650FF0BC7
:10158600046E04C000F0016A600003F0B7FFFF0EAE
:101596004514B66E938F156ABD92BC94BC963B50AB
:1015A6004E5C02E13A504D5CD8A052D73F4A402AE1
:1015B60046D78FEF10F0000E3B1802E1000E3A18E6
:1015C600D8A4DED0390116C000F017C001F0230EF2
:1015D600046E000E056E64EC06F000C047F001C014
:1015E60048F0000E01BEFF0E496E4A6E47500008D5
:1015F600056E48C006F0000E065605C04BF006C044
:101606004CF09491000E0514036E0650FF0B046E09
:1016160004C000F0016A600003F0B1FFFF0E05147C
:10162600B06E94813F6A406A000E405C02E13E5013
:101636003F5CD8B0A3D04F6A506ACBB205D02F0E0C
:10164600576E2CEC06F097D0CBB405D0300E576E03
:101656002CEC06F090D0CBB605D0310E576E2CECA4
:1016660006F089D01B500008D8B07ED03D50505CA3
:1016760002E13C504F5CD8B077D0BC86BC844F4A60
:10168600502A000E401802E1000E3F1822E1060E15
:10169600505C02E1400E4F5C1CE24FC051F050C05E
:1016A60052F04F504008016E50C002F0060E02562E
:1016B6000250525C02E10150515C0BE2040E0D6EC9
:1016C6000D2EFED700000000A00E5126000E52225D
:1016D600E8D73E04016E026A000E025A4050021814
:1016E60002E101503F182BE1400E3C5C016E060EF4
:1016F6003D58026E5050025C02E14F50015C1FE201
:10170600516A526A400E3C5C006E060E3D58016EF0
:1017160000504F5C026E01505058036E0350525CED
:1017260002E10250515C0BE2040E0D6E0D2EFED747
:1017360000000000A00E5126000E5222E3D7390108
:101746009491000E4B14036E4C50FF0B046E04C0B4
:1017560000F0016A600003F0B1FFFF0E4B14B06E9B
:1017660094811B6ABC96BC943D50505C02E13C508F
:101776004F5CD8A062D73F4A402A56D78FEF10F069
:10178600000E3D1802E1000E3C18D8A4D6D039014F
:1017960016C000F017C001F0230E046E000E056E91
:1017A60064EC06F000C041F001C042F0000E01BE3C
:1017B600FF0E436E446E41500008056E42C006F0AF
:1017C600000E065605C045F006C046F0939F000E73
:1017D6000514036E0650FF0B046E04C000F0016A88
:1017E600600003F0B7FFFF0E0514B66E938F3F6AD5
:1017F600406A000E405C02E13E503F5CD8B09CD08F
:101806004D6A4E6A4F6A506ACBBA05D02E0E576E95
:101816002CEC06F08ED0CBB805D02D0E576E2CECE6
:1018260006F087D015500008D8B07CD03B504E5CEF
:1018360002E13A504D5CD8B075D0BD824D4A4E2A71
:10184600000E401802E1000E3F1822E1060E4E5C23
:1018560002E1400E4D5C1CE24DC051F04EC052F00C
:101866004D504008016E4EC002F0060E0256025060
:10187600525C02E10150515C0BE2040E0D6E0D2E1E
:10188600FED700000000A00E5126000E5222E8D717
:101896003E04016E026A000E025A4050021802E12E
:1018A60001503F182BE1400E3A5C016E060E3B5884
:1018B600026E4E50025C02E14D50015C1FE2516A1D
:1018C600526A400E3A5C006E060E3B58016E00509E
:1018D6004D5C026E01504E58036E0350525C02E19D
:1018E6000250515C0BE2040E0D6E0D2EFED7000069
:1018F6000000A00E5126000E5222E3D73901939F15
:10190600000E4514036E4650FF0B046E04C000F033
:10191600016A600003F0B7FFFF0E4514B66E938FA1
:10192600156ABD923B504E5C02E13A504D5CD8A020
:101936006BD73F4A402A5DD7EFD33B503D5C02E16F
:101946003A503C5CD8B0F1D13CC000F03DC001F04B
:10195600000E026E036E400E046E060E056E000E3D
:10196600066E000E076E3BEC06F03AC004F03BC074
:1019760005F0000E066E076E90EC06F000C053F000
:1019860001C054F000C004F001C005F0000E066E60
:10199600076E3CC000F03DC001F0000E026E036E03
:1019A6003BEC06F03AC004F03BC005F0000E066EB4
:1019B600076E90EC06F000C055F001C056F0000E20
:1019C600011802E1000E001804E1010E556E000E2A
:1019D600566E16C000F017C001F0003600900136B2
:1019E6000F0E046E000E056E64EC06F000C041F0AA
:1019F60001C042F0000E01BEFF0E436E446E3AC0B7
:101A060000F03BC001F0000E026E036E41C004F010
:101A160042C005F043C006F044C007F03BEC06F0B8
:101A26003CC004F03DC005F0000E066E076E90EC5B
:101A360006F000C047F001C048F0000E496E4A6E3D
:101A460041500008076E42C008F0000E085607C055
:101A560045F008C046F047500008056E48C006F03D
:101A6600000E065605C04BF006C04CF03901939F98
:101A7600000E0714036E0850FF0B046E04C000F03E
:101A8600016A600003F0B7FFFF0E0714B66E938F6E
:101A96009491000E0514036E0650FF0B046E04C0ED
:101AA60000F0016A600003F0B1FFFF0E0514B06E8E
:101AB60094813F6A406A000E405C02E13E503F5C02
:101AC600D8B032D14D6A4E6A4F6A506ACBB205D051
:101AD6002F0E576E2CEC06F024D1CBB405D0300E69
:101AE600576E2CEC06F01DD1CBB605D0310E576ED5
:101AF6002CEC06F016D1CBBA05D02E0E576E2CEC78
:101B060006F00FD1CBB805D02D0E576E2CEC06F093
:101B160008D115500008D8B07CD03B504E5C02E18D
:101B26003A504D5CD8B075D0BD824D4A4E2A000E53
:101B3600401802E1000E3F1822E1060E4E5C02E15B
:101B4600400E4D5C1CE24DC051F04EC052F04D505F
:101B56004008016E4EC002F0060E02560250525C5C
:101B660002E10150515C0BE2040E0D6E0D2EFED704
:101B760000000000A00E5126000E5222E8D73E04B7
:101B8600016E026A000E025A4050021802E101502C
:101B96003F182BE1400E3A5C016E060E3B58026E72
:101BA6004E50025C02E14D50015C1FE2516A526ADE
:101BB600400E3A5C006E060E3B58016E00504D5CBE
:101BC600026E01504E58036E0350525C02E1025001
:101BD600515C0BE2040E0D6E0D2EFED700000000C8
:101BE600A00E5126000E5222E3D73901939F000E14
:101BF6004514036E4650FF0B046E04C000F0016AE4
:101C0600600003F0B7FFFF0E4514B66E938F156A9A
:101C1600BD921B500008D8B07DD03D50505C02E10B
:101C26003C504F5CD8B076D0BC86BC844F4A502A14
:101C3600000E401802E1000E3F1821E15450505C9E
:101C460002E153504F5C1BE24FC051F050C052F0BE
:101C56004F50535C016E50505458026E0250525C05
:101C660002E10150515C0BE2040E0D6E0D2EFED703
:101C7600000000005550512656505222E9D73E0426
:101C8600016E026A000E025A4050021802E101502B
:101C96003F182BE153503C5C016E54503D58026E88
:101CA6005050025C02E14F50015C1FE2516A526AD9
:101CB60053503C5C006E54503D58016E00504F5CD2
:101CC600026E01505058036E0350525C02E10250FE
:101CD600515C0BE2040E0D6E0D2EFED700000000C7
:101CE6005550512656505222E3D739019491000E91
:101CF6004B14036E4C50FF0B046E04C000F0016AD7
:101D0600600003F0B1FFFF0E4B14B06E1B6ABC9669
:101D1600BC9494813B504E5C02E13A504D5CD8A095
:101D2600D5D63F4A402AC7D6F7D13D503B5C02E1A3
:101D36003C503A5CD8B0F0D13AC000F03BC001F05C
:101D4600000E026E036E400E046E060E056E000E49
:101D5600066E000E076E3BEC06F03CC004F03DC07C
:101D660005F0000E066E076E90EC06F000C053F00C
:101D760001C054F000C004F001C005F0000E066E6C
:101D8600076E3AC000F03BC001F0000E026E036E13
:101D96003BEC06F03CC004F03DC005F0000E066EBC
:101DA600076E90EC06F000C055F001C056F0000E2C
:101DB600011802E1000E001804E1010E556E000E36
:101DC600566E16C000F017C001F0003600900136BE
:101DD6000F0E046E000E056E64EC06F000C047F0B0
:101DE60001C048F0000E01BEFF0E496E4A6E3CC0AF
:101DF60000F03DC001F0000E026E036E47C004F015
:101E060048C005F049C006F04AC007F03BEC06F0B2
:101E16003AC004F03BC005F0000E066E076E90EC6B
:101E260006F000C041F001C042F0000E436E446E61
:101E360041500008076E42C008F0000E085607C061
:101E460045F008C046F047500008056E48C006F049
:101E5600000E065605C04BF006C04CF03901939FA4
:101E6600000E0714036E0850FF0B046E04C000F04A
:101E7600016A600003F0B7FFFF0E0714B66E938F7A
:101E86009491000E0514036E0650FF0B046E04C0F9
:101E960000F0016A600003F0B1FFFF0E0514B06E9A
:101EA60094813F6A406A000E405C02E13E503F5C0E
:101EB600D8B032D14D6A4E6A4F6A506ACBB205D05D
:101EC6002F0E576E2CEC06F024D1CBB405D0300E75
:101ED600576E2CEC06F01DD1CBB605D0310E576EE1
:101EE6002CEC06F016D1CBBA05D02E0E576E2CEC84
:101EF60006F00FD1CBB805D02D0E576E2CEC06F0A0
:101F060008D11B500008D8B07ED03D50505C02E18D
:101F16003C504F5CD8B077D0BC86BC844F4A502A20
:101F2600000E401802E1000E3F1822E1060E505C3A
:101F360002E1400E4F5C1CE24FC051F050C052F01F
:101F46004F504008016E50C002F0060E0256025075
:101F5600525C02E10150515C0BE2040E0D6E0D2E37
:101F6600FED700000000A00E5126000E5222E8D730
:101F76003E04016E026A000E025A4050021802E147
:101F860001503F182BE1400E3C5C016E060E3D5899
:101F9600026E5050025C02E14F50015C1FE2516A32
:101FA600526A400E3C5C006E060E3D58016E0050B3
:101FB6004F5C026E01505058036E0350525C02E1B2
:101FC6000250515C0BE2040E0D6E0D2EFED7000082
:101FD6000000A00E5126000E5222E3D7390194913B
:101FE600000E4B14036E4C50FF0B046E04C000F041
:101FF600016A600003F0B1FFFF0E4B14B06E9481CE
:102006001B6ABC96BC9415500008D8B07BD03B50D8
:102016004E5C02E13A504D5CD8B074D0BD824D4A58
:102026004E2A000E401802E1000E3F1821E15450DE
:102036004E5C02E153504D5C1BE24DC051F04EC068
:1020460052F04D50535C016E4E505458026E025081
:10205600525C02E10150515C0BE2040E0D6E0D2E36
:10206600FED7000000005550512656505222E9D79F
:102076003E04016E026A000E025A4050021802E146
:1020860001503F182BE153503C5C016E54503D58B3
:10209600026E4E50025C02E14D50015C1FE2516A35
:1020A600526A53503A5C006E54503B58016E0050D1
:1020B6004D5C026E01504E58036E0350525C02E1B5
:1020C6000250515C0BE2040E0D6E0D2EFED7000081
:1020D60000005550512656505222E3D73901939F9E
:1020E600000E4514036E4650FF0B046E04C000F04C
:1020F600016A600003F0B7FFFF0E4514B66E156A5D
:10210600BD92938F3D50505C02E13C504F5CD8A08D
:0A211600D5D63F4A402AC7D6120072
:10212000156A190E166E176A4B0E186E196A1A6A1E
:102130001B6A0C0E3A01406F506B606B706B806BCA
:10214000020EC26EFF0EC36E800EC46EC56AC66AF2
:10215000BA6ABC6A040EBD6EBE6AFF0E3D01F56F21
:10216000000EF66FF28FECEC07F00F0E0B6EF60E12
:102170000C6EFB0E0D6E0D2EFED70C2EFCD70B2E0B
:10218000FAD71A6AF90EB76EC00EB66ED28E1B6AF7
:102190003901938F010EB26EF90EB16EC00EB06EA2
:1021A000156AC00ED26E77EC08F0390194811A6A74
:1021B000060E1A5C19E235EC09F0005214E01C0E10
:1021C000386E000E396E1A503826D8B0392AD1EC44
:1021D00009F06000E3F0E1FF6000E7F0E2FF60007B
:1021E00003F0E6FF1A2AE4D71C50410A09E11D500A
:1021F000000A06E12B0E576E2CEC06F01A6AF8D294
:102200001D501C24006E1E5000261F50002620501A
:102210000024016E21500118D8A4E5D283D21DC03C
:1022200017F0166A1E501626000E17222B0E576E38
:102230002CEC06F01A6AD6D205D0BD940AD0BD8423
:1022400008D007D01D50000AF8E01D50010AF7E041
:10225000F8D72B0E576E2CEC06F01A6AC3D21EC0AC
:102260003DF03C6A1F503C26000E3D221DC03AF056
:10227000000E3B6EB0EC07F02B0E576E2CEC06F008
:102280001A6AB0D21EC03DF03C6A1F503C26000EB8
:102290003D221DC03AF0000E3B6E37EC09F02B0ECC
:1022A000576E2CEC06F01A6A9DD21DC019F0186A00
:1022B0001E501826000E19222B0E576E2CEC06F01D
:1022C0001A6A90D2BD90BC90BCB002D0BC9201D032
:1022D000BC821DC03BF03A6A1E503A26000E3B22DB
:1022E0001FC03DF03C6A20503C26000E3D22010EEE
:1022F0003E6ED3EC09F02B0E576E2CEC06F01A6AEA
:1023000071D2BD90BC80BCB002D0BC9201D0BC8266
:102310001DC03BF03A6A1E503A26000E3B221FC0F9
:102320003DF03C6A20503C26000E3D22010E3E6EE0
:10233000D3EC09F02B0E576E2CEC06F01A6A52D231
:10234000BD80BC80BCB002D0BC9201D0BC821DC09C
:102350003BF03A6A1E503A26000E3B221FC03DF069
:102360003C6A20503C26000E3D22010E3E6ED3EC0E
:1023700009F02B0E576E2CEC06F01A6A33D2BD8092
:10238000BC90BCB002D0BC9201D0BC821DC03BF05E
:102390003A6A1E503A26000E3B221FC03DF03C6AAE
:1023A00020503C26000E3D22010E3E6ED3EC09F07B
:1023B0002B0E576E2CEC06F01A6A14D2BD90BC900E
:1023C000BCB002D0BC9201D0BC821DC03BF03A6AC6
:1023D0001E503A26000E3B221FC03DF03C6A2050A2
:1023E0003C26000E3D22020E3E6ED3EC09F02B0E71
:1023F000576E2CEC06F01A6AF5D1BD90BC80BCB0CB
:1024000002D0BC9201D0BC821DC03BF03A6A1E5083
:102410003A26000E3B221FC03DF03C6A20503C266D
:10242000000E3D22020E3E6ED3EC09F02B0E576ECD
:102430002CEC06F01A6AD6D1BD80BC80BCB002D0AC
:10244000BC9201D0BC821DC03BF03A6A1E503A26B5
:10245000000E3B221FC03DF03C6A20503C26000E7F
:102460003D22020E3E6ED3EC09F02B0E576E2CEC83
:1024700006F01A6AB7D1BD80BC90BCB002D0BC9245
:1024800001D0BC821DC03BF03A6A1E503A26000EB5
:102490003B221FC03DF03C6A20503C26000E3D22EE
:1024A000020E3E6ED3EC09F02B0E576E2CEC06F0AC
:1024B0001A6A98D1BD90BC90BCB002D0BC9201D039
:1024C000BC821DC03BF03A6A1E503A26000E3B22E9
:1024D0001FC03DF03C6A20503C26000E3D22030EFA
:1024E0003E6ED3EC09F02B0E576E2CEC06F01A6AF8
:1024F00079D1BD90BC80BCB002D0BC9201D0BC826E
:102500001DC03BF03A6A1E503A26000E3B221FC007
:102510003DF03C6A20503C26000E3D22030E3E6EEC
:10252000D3EC09F02B0E576E2CEC06F01A6A5AD138
:10253000BD80BC80BCB002D0BC9201D0BC821DC0AA
:102540003BF03A6A1E503A26000E3B221FC03DF077
:102550003C6A20503C26000E3D22030E3E6ED3EC1A
:1025600009F02B0E576E2CEC06F01A6A3BD1BD8099
:10257000BC90BCB002D0BC9201D0BC821DC03BF06C
:102580003A6A1E503A26000E3B221FC03DF03C6ABC
:1025900020503C26000E3D22030E3E6ED3EC09F087
:1025A0002B0E576E2CEC06F01A6A1CD1BD90BC9015
:1025B000BCB002D0BC9201D0BC821DC03BF03A6AD4
:1025C0001E503A26000E3B221FC03DF03C6A2050B0
:1025D0003C26000E3D22040E3E6ED3EC09F02B0E7D
:1025E000576E2CEC06F01A6AFDD0BD90BC80BCB0D2
:1025F00002D0BC9201D0BC821DC03BF03A6A1E5092
:102600003A26000E3B221FC03DF03C6A20503C267B
:10261000000E3D22040E3E6ED3EC09F02B0E576ED9
:102620002CEC06F01A6ADED0BD80BC80BCB002D0B3
:10263000BC9201D0BC821DC03BF03A6A1E503A26C3
:10264000000E3B221FC03DF03C6A20503C26000E8D
:102650003D22040E3E6ED3EC09F02B0E576E2CEC8F
:1026600006F01A6ABFD0BD80BC90BCB002D0BC924C
:1026700001D0BC821DC03BF03A6A1E503A26000EC3
:102680003B221FC03DF03C6A20503C26000E3D22FC
:10269000040E3E6ED3EC09F02B0E576E2CEC06F0B8
:1026A0001A6AA0D0D00E3A6E070E3B6E8FEC07F080
:1026B0002B0E576E2CEC06F01A6A94D0BD90BC908D
:1026C000BCB002D0BC9201D0BC821DC03AF01EC08A
:1026D0003BF01FC03CF020C03DF013EC08F02B0E87
:1026E000576E2CEC06F01A6A7DD0BD80BC80BCB061
:1026F00002D0BC9201D0BC821DC03AF01EC03BF09B
:102700001FC03CF020C03DF013EC08F02B0E576EBC
:102710002CEC06F01A6A66D03F0E576E2CEC06F0D1
:102720001A6A60D01C50440AD8B479D51C504B0AA0
:10273000D8B482D51C504C0AD8B491D51C50540A38
:10274000D8B4A0D51C50560AD8B4AFD51C50570ADF
:10275000D8B4B8D51C50590AD8B4D3D51C505B0A8C
:10276000D8B4EED51C505D0AD8B409D61C505E0A08
:10277000D8B424D61C505F0AD8B43FD61C50600A87
:10278000D8B45AD61C50610AD8B475D61C50620A07
:10279000D8B490D61C50630AD8B4ABD61C50640A87
:1027A000D8B4C6D61C50650AD8B4E1D61C50660A07
:1027B000D8B4FCD61C50670AD8B417D71C50680A86
:1027C000D8B432D71C50690AD8B44DD71C506E0A01
:1027D000D8B468D71C506F0AD8B470D71C50710A8F
:1027E00084E09AD705D03F0E576E2CEC06F01A6A9B
:0427F000DED4FFD75D
:0227F4000000E3
:0427F60000000000DF
:0227FA000000DD
:0427FC0000000000D9
:022800000000D6
:022802000000D4
:022804000000D2
:022806000000D0
:020000040030CA
:0A000000220A3FBF6B3F9F0F010073
:00000001FF
