:0400000047EF0FF0C7
:100008000E01CAAB02D0152ACA9BCEA102D01B2A68
:04001800CE91110074
:0E001C00550E0E01A06FAA0EA06FA09112004B
:0E002A00550E0E01A06FAA0EA06FA08112004D
:10003800000171511F0802E2006AF3D27251000AEE
:10004800D8A4C9D0745301E0E5DF60D073C0E7FEDF
:10005800BED073C0E8FEBBD073C0E9FEB8D073C091
:10006800EAFEB5D073C0EBFEB2D073C0ECFEAFD0E1
:1000780073C0EDFEACD073C0EEFEA9D073C0EFFE26
:10008800A6D073C0F0FEA3D073C0F1FEA0D073C099
:10009800F2FE9DD073C0F3FE9AD073C0F4FE97D0E1
:1000A80073C0F5FE94D073C0F6FE91D073C0F7FE0E
:1000B8008ED073C0F8FE8BD073C0F9FE88D073C0A1
:1000C800FAFE85D073C0FBFE82D073C0FCFE7FD0E1
:1000D80073C0FDFE7CD073C0FEFE79D073C0FFFEF6
:1000E80076D073C000FF73D073C001FF70D073C0A7
:1000F80002FF6DD073C003FF6AD073C004FF67D0DE
:1001080073C005FF64D073C006FF61D00001715150
:10011800000A9CE07151010A9CE07151020A9CE0BE
:100128007151030A9CE07151040A9CE07151050A5F
:100138009CE07151060A9CE07151070A9CE07151DC
:10014800080A9CE07151090A9CE071510A0A9CE076
:1001580071510B0A9CE071510C0A9CE071510D0A17
:100168009CE071510E0A9CE071510F0A9CE071519C
:10017800100A9CE07151110A9CE07151120A9CE02E
:100188007151130A9CE07151140A9CE07151150ACF
:100198009CE07151160A9CE07151170A9CE071515C
:1001A800180A9CE07151190A9CE071511A0A9CE0E6
:1001B80071511B0A9CE071511C0A9CE071511D0A87
:1001C8009CE071511E0A9CE071511F0A9CE00001DD
:1001D800745301E026DF00017251010AD8A4BDD092
:1001E800745301E017DF5AD071C0A1FEB2D071C0BC
:1001F800A2FEAFD071C0A3FEACD071C0A4FEA9D03E
:1002080071C0A5FEA6D071C0A6FEA3D071C0A7FE7E
:10021800A0D071C0A8FE9DD071C0A9FE9AD071C0AF
:10022800AAFE97D071C0ABFE94D071C0ACFE91D03D
:1002380071C0ADFE8ED071C0AFFE8BD071C0B0FE64
:1002480088D071C0B1FE85D071C0B2FE82D071C0B5
:10025800B3FE7FD071C0B4FE7CD071C0AEFE79D041
:1002680071C0B7FE76D071C0B8FE73D071C0B9FE48
:1002780070D071C08FFE6DD071C090FE6AD071C011
:1002880091FE67D071C0B5FE64D071C0B6FE61D072
:1002980071C08DFE5ED071C08EFE5BD000017351BF
:1002A800000AA2E07351010AA2E07351020AA2E017
:1002B8007351030AA2E07351040AA2E07351050ABC
:1002C800A2E07351060AA2E07351070AA2E0735133
:1002D800080AA2E07351090AA2E073510A0AA2E0CF
:1002E80073510B0AA2E073510C0AA2E073510D0A74
:1002F800A2E073510E0AA2E073510F0AA2E07351F3
:10030800100AA2E07351110AA2E07351120AA2E086
:100318007351130AA2E07351140AA2E07351150A2B
:10032800A2E07351160AA2E07351170AA2E07351B2
:10033800180AA2E07351190AA2E073511A0AA2E03E
:1003480073511B0AA2E073511C0AA2E073511D0AE3
:10035800A2E00001745301E064DEE0D0000172B154
:1003680002D0889001D088805AD1000172B102D0A1
:10037800889201D0888253D1000172B102D088944A
:1003880001D088844CD1000172B102D0889601D086
:10039800888645D1000172B102D0889801D088883A
:1003A8003ED1000172B102D0889A01D0888A37D133
:1003B800000172B102D0889C01D0888C30D1000134
:1003C80072B102D0889E01D0888E29D1000172B105
:1003D80002D0899001D0898022D1000172B102D067
:1003E800899201D089821BD1000172B102D089940F
:1003F80001D0898414D1000172B102D0899601D04C
:1004080089860DD1000172B102D0899801D08988FE
:1004180006D1000172B102D0899A01D0898AFFD031
:10042800000172B102D0899C01D0898CF8D00001FA
:1004380072B102D0899E01D0898EF1D0000172B1CB
:1004480002D08A9001D08A80EAD0000172B102D02D
:100458008A9201D08A82E3D0000172B102D08A94D4
:1004680001D08A84DCD0000172B102D08A9601D012
:100478008A86D5D0000172B102D08A9801D08A88C4
:10048800CED0000172B102D08A9A01D08A8AC7D030
:10049800000172B102D08A9C01D08A8CC0D00001C0
:1004A80072B102D08A9E01D08A8EB9D0000172B191
:1004B80002D08B9001D08B80B2D0000172B102D0F3
:1004C8008B9201D08B82ABD0000172B102D08B9499
:1004D80001D08B84A4D0000172B102D08B9601D0D8
:1004E8008B869DD0000172B102D08B9801D08B8889
:1004F80096D0000172B102D08B9A01D08B8A8FD02E
:10050800000172B102D08B9C01D08B8C88D0000185
:1005180072B102D08B9E01D08B8E81D000017151B7
:10052800000AD8B41BD77151010AD8B41ED771512B
:10053800020AD8B421D77151030AD8B424D771510B
:10054800040AD8B427D77151050AD8B42AD77151EB
:10055800060AD8B42DD77151070AD8B430D77151CB
:10056800080AD8B433D77151090AD8B436D77151AB
:100578000A0AD8B439D771510B0AD8B43CD771518B
:100588000C0AD8B43FD771510D0AD8B442D771516B
:100598000E0AD8B445D771510F0AD8B448D771514B
:1005A800100AD8B44BD77151110AD8B44ED771512B
:1005B800120AD8B451D77151130AD8B454D771510B
:1005C800140AD8B457D77151150AD8B45AD77151EB
:1005D800160AD8B45DD77151170AD8B460D77151CB
:1005E800180AD8B463D77151190AD8B466D77151AB
:1005F8001A0AD8B469D771511B0AD8B46CD771518B
:100608001C0AD8B46FD771511D0AD8B472D771516A
:100618001E0AD8B475D771511F0AD8B478D7FF0EFF
:04062800006E12004E
:10062C005BC071F05CC072F05DC073F0010E000134
:06063C00746FFCDC1200EB
:0E0642009EB202D00000FCD75BC09AFF1200EF
:100650000450085E0550D8A0053C095E0650D8A09D
:10066000063C0A5E0750D8A0073C0B5E0336070E17
:100670000C6E0334083609360A360B36045003A0D4
:100680000ED0085E0550D8A0053C095E0650D8A0E3
:10069000063C0A5E0750D8A0073C0B5E0DD008262A
:1006A0000550D8B0053C09260650D8B0063C0A26AD
:1006B0000750D8B0073C0B2603360C2EDAD702348D
:1006C000083609360A360B36045003A00ED0085EF1
:1006D0000550D8A0053C095E0650D8A0063C0A5E2D
:1006E0000750D8A0073C0B5E0DD008260550D8B0A7
:1006F000053C09260650D8B0063C0A260750D8B05B
:10070000073C0B260236070E0C6E023408360936FB
:100710000A360B36045002A00ED0085E0550D8A051
:10072000053C095E0650D8A0063C0A5E0750D8A0DA
:10073000073C0B5E0DD008260550D8B0053C0926B5
:100740000650D8B0063C0A260750D8B0073C0B2606
:1007500002360C2EDAD70134083609360A360B3643
:10076000045002A00ED0085E0550D8A0053C095EDA
:100770000650D8A0063C0A5E0750D8A0073C0B5E86
:100780000DD008260550D8B0053C09260650D8B033
:10079000063C0A260750D8B0073C0B260136070E48
:1007A0000C6E0134083609360A360B36045001A0A7
:1007B0000ED0085E0550D8A0053C095E0650D8A0B2
:1007C000063C0A5E0750D8A0073C0B5E0DD00826F9
:1007D0000550D8B0053C09260650D8B0063C0A267C
:1007E0000750D8B0073C0B2601360C2EDAD7003460
:1007F000083609360A360B36045001A00ED0085EC2
:100800000550D8A0053C095E0650D8A0063C0A5EFB
:100810000750D8A0073C0B5E0DD008260550D8B075
:10082000053C09260650D8B0063C0A260750D8B029
:10083000073C0B260036070E0C6E003408360936CE
:100840000A360B36045000A00ED0085E0550D8A022
:10085000053C095E0650D8A0063C0A5E0750D8A0A9
:10086000073C0B5E0DD008260550D8B0053C092684
:100870000650D8B0063C0A260750D8B0073C0B26D5
:1008800000360C2EDAD700B00ED0045008260550E2
:10089000D8B0053C09260650D8B0063C0A260750B9
:0808A000D8B0073C0B26120042
:1008A8000B1E0A1E091E081E082AD8B4092AD8B425
:0808B8000A2AD8B40B2A120031
:0808C00057C05BF0BEDE120020
:1008C800220E0C6E086A096A0A6A0B6A0C06D8B40A
:1008D8001FD0D8900B320A32093208320332023262
:1008E80001320032D8A0F2D70C06D8B409D004508F
:1008F80008260550092206500A2207500B22EAD77B
:10090800045008260550092206500A2207500B22D7
:020918001200CB
:10091A0099CF01F09DA202D09D989D8801C000F058
:02092A001200B9
:10092C00000E585C02E10A0E575C0AE2080E0C6ECF
:10093C00A70E0D6E0D2EFED70C2EFCD7000000005E
:10094C00000E585C02E1140E575C0AE2080E0C6EA5
:10095C00A70E0D6E0D2EFED70C2EFCD7000000003E
:10096C00000E585C02E1280E575C0AE2070E0C6E72
:10097C00B20E0D6E0D2EFED70C2EFCD70000000013
:10098C00000E585C02E1500E575C0AE2060E0C6E2B
:10099C00BD0E0D6E0D2EFED70C2EFCD700000000E8
:1009AC00000E585C02E1A00E575C09E2030E0C6EBF
:1009BC00DE0E0D6E0D2EFED70C2EFCD70000000E99
:1009CC00585C02E10A0E575C0AE2060E0C6EBD0E74
:1009DC000D6E0D2EFED70C2EFCD700000000000E65
:1009EC005A5C02E1140E595C0AE2060E0C6EBD0E46
:1009FC000D6E0D2EFED70C2EFCD700000000000E45
:100A0C005A5C02E1280E595C09E2050E0C6EC80E08
:100A1C000D6E0D2EFED70C2EFCD70000000E5A5C6E
:100A2C0002E1500E595C09E2040E0C6ED30E0D6EF1
:100A3C000D2EFED70C2EFCD70000000E5A5C02E1E6
:100A4C00A00E595C09E2020E0C6EE90E0D6E0D2E15
:100A5C00FED70C2EFCD70000016A026A800E021829
:100A6C00006E800E1918005C02E11850015C09E25E
:100A7C00040E0D6E0D2EFED700000000014A022A56
:040A8C00EDD7120090
:100A90000450000A12E10550000A0FE10650000A56
:100AA0000CE10750000A09E1FF0E006EFF0E016E17
:100AB000FF0E026E7F0E036E97D00C6A07BE0C2AE3
:100AC0000D6A0B6A0A6A096A086A0350021001106B
:100AD0000010D8B484D0035007180E6E0EBE0D1E41
:100AE00007AE0BD0041E051E061E071E042AD8B42E
:100AF000052AD8B4062AD8B4072A03AE0BD0001EA4
:100B0000011E021E031E002AD8B4012AD8B4022AEC
:100B1000D8B4032A035007100E6E0EBE1CD098DD09
:100B20000CBE36D00DAE5BD0001E011E021E031E91
:100B3000002AD8B4012AD8B4022AD8B4032A081E3D
:100B4000091E0A1E0B1E082AD8B4092AD8B40A2A7C
:100B5000D8B40B2A44D007AE15D003BE0DD0035035
:100B60000B6E02500A6E0150096E0050086E036A47
:100B7000026A016A006AD6D7036A026A016A006AD9
:100B8000002A000C031E021E011E001E0C8EC7D779
:100B9000082AD8B4092AD8B40A2AD8B40B2A04508F
:100BA000085CD8A4BFD70550095CD8A4BBD70650B1
:100BB0000A5CD8A4B7D707500B5CD8A4B3D70B6A8C
:100BC0000A6A096A086A002AD8B4012AD8B4022A33
:100BD000D8B4032A03AEA6D70E6A0E88FF0C0E6A9D
:0A0BE0000CA001D061DE000F12002E
:100BEA000B6A0A6A096A00500402F4CF09F0F3CFCB
:100BFA0008F001500502F4CF0BF0F3CF0AF00050D1
:100C0A000502F3500926F4500A22E86A0B22015021
:100C1A000402F3500926F4500A22E86A0B2208C09B
:100C2A0000F009C001F00AC002F00BC003F0120084
:100C3A00160E5B6E5C6A090E5D6EF3DC170E5B6E58
:0C0C4A00010E5C6E1A0E5D6EECDC1200F8
:100C56009E8A900E9D6E0E01CDAB03D099CF00F00B
:040C6600FAD71200A7
:100C6A0061C028F062C029F063C02AF064C02BF08A
:100C7A0065C02CF066C02DF067C02EF068C02FF05A
:100C8A0069C030F06AC031F06BC032F06CC033F02A
:100C9A006DC034F06EC035F06FC036F070C037F0FA
:020CAA00120036
:0C0CAC00000E0E01CDBB010E006E120008
:100CB800C0DF880E0001616F1E0E626F000E636F49
:100CC800000E646FC00E656F080E666F570E676F73
:100CD800000E686F9A0E696F1C0E6A6F000E6B6FBC
:100CE800000E6C6FFF0E6D6FFF0E6E6F000E6F6F54
:0A0CF800000E706FB6DFABDF1200D4
:100D0200818E0900F5CFE6FF0006FBE10106F9E15D
:020D12001200CD
:100D14003F6A406A416A426A436A446A456A466A6B
:100D2400476A486A496A4A6A4B6A4C6A4D6A4E6A1B
:100D34004F6A506A516A526A3B503D1802E13C5076
:100D44003A18D8A4E9D016C000F017C001F0003654
:100D5400009001360F0E046E000E056E44DF00C0D5
:100D640041F001C042F0000E01BEFF0E436E446E1E
:100D740041500008056E42C006F0000E065605C03C
:100D840045F006C046F00E01C29B000E0514036E2A
:100D94000650FF0B046E04C000F0016A00C0D4FFCB
:100DA400FF0E0514D36EC28B3F6A406A000E405C8E
:100DB40002E13E503F5CD8B0ADD04D6A4E6A8EB26F
:100DC40004D02F0E576E7ADDA2D08EB404D0300E2C
:100DD400576E74DD9CD08EB604D0310E576E6EDD26
:100DE40096D08EBA04D02E0E576E68DD90D08EB891
:100DF40004D02D0E576E62DD8AD015500008D8B08D
:100E04007FD03B504E5C02E13A504D5CD8B078D074
:100E14008682858685844D4A4E2A000E401802E15A
:100E2400000E3F1822E1060E4E5C02E1400E4D5CBE
:100E34001CE24DC051F04EC052F04D504008016EBE
:100E44004EC002F0060E02560250525C02E10150FE
:100E5400515C0BE2040E0D6E0D2EFED70000000057
:100E6400A00E5126000E5222E8D73E04016E026AFB
:100E7400000E025A4050021802E101503F182BE1C3
:100E8400400E3A5C016E060E3B58026E4E50025CF8
:100E940002E14D50015C1FE2516A526A400E3A5C15
:100EA400006E060E3B58016E00504D5C026E015000
:100EB4004E58036E0350525C02E10250515C0BE247
:100EC400040E0D6E0D2EFED700000000A00E51265C
:100ED400000E5222E3D70E01C29B000E4514036E8E
:100EE4004650FF0B046E04C000F0016A00C0D4FF3A
:100EF400FF0E4514D36EC28B156A8692859485962F
:100F04003B504E5C02E13A504D5CD8A058D73F4A62
:100F1400402A4CD72DEF0DF0000E3B1802E1000ED5
:100F24003A18D8A4D8D00E0116C000F017C001F0AA
:100F3400230E046E000E056E56DE00C047F001C09D
:100F440048F0000E01BEFF0E496E4A6E475000087D
:100F5400056E48C006F0000E065605C04BF006C0EC
:100F64004CF0C691000E0514036E0650FF0B046E80
:100F740004C000F0016A00C0CEFFFF0E0514CD6E60
:100F8400C6813F6A406A000E405C02E13E503F5C0D
:100F9400D8B09FD04F6A506A8EB204D02F0E576ECD
:100FA4008DDC94D08EB404D0300E576E87DC8ED096
:100FB4008EB604D0310E576E81DC88D01B500008E9
:100FC400D8B07DD03D50505C02E13C504F5CD8B06D
:100FD40076D0858685844F4A502A000E401802E157
:100FE400000E3F1822E1060E505C02E1400E4F5CF9
:100FF4001CE24FC051F050C052F04F504008016EF7
:1010040050C002F0060E02560250525C02E101503A
:10101400515C0BE2040E0D6E0D2EFED70000000095
:10102400A00E5126000E5222E8D73E04016E026A39
:10103400000E025A4050021802E101503F182BE101
:10104400400E3C5C016E060E3D58026E5050025C30
:1010540002E14F50015C1FE2516A526A400E3C5C4F
:10106400006E060E3D58016E00504F5C026E01503A
:101074005058036E0350525C02E10250515C0BE283
:10108400040E0D6E0D2EFED700000000A00E51269A
:10109400000E5222E3D70E01C691000E4B14036ECC
:1010A4004C50FF0B046E04C000F0016A00C0CEFF78
:1010B400FF0E4B14CD6EC6811B6A859685943D50F8
:1010C400505C02E13C504F5CD8A066D73F4A402AAE
:1010D4005AD72DEF0DF0000E3D1802E1000E3C181A
:1010E400D8A4D3D00E0116C000F017C001F0230E0F
:1010F400046E000E056E77DD00C041F001C042F0C1
:10110400000E01BEFF0E436E446E41500008056E92
:1011140042C006F0000E065605C045F006C046F073
:10112400C29B000E0514036E0650FF0B046E04C030
:1011340000F0016A00C0D4FFFF0E0514D36EC28B09
:101144003F6A406A000E405C02E13E503F5CD8B00A
:101154009BD04D6A4E6A4F6A506A8EBA05D02E0EE5
:10116400576E60EC04F08DD08EB805D02D0E576EFE
:1011740060EC04F086D015500008D8B07BD03B500A
:101184004E5C02E13A504D5CD8B074D086824D4A30
:101194004E2A000E401802E1000E3F1822E1060E0E
:1011A4004E5C02E1400E4D5C1CE24DC051F04EC05D
:1011B40052F04D504008016E4EC002F0060E025629
:1011C4000250525C02E10150515C0BE2040E0D6EC0
:1011D4000D2EFED700000000A00E5126000E522254
:1011E400E8D73E04016E026A000E025A405002180B
:1011F40002E101503F182BE1400E3A5C016E060EED
:101204003B58026E4E50025C02E14D50015C1FE2FD
:10121400516A526A400E3A5C006E060E3B58016EEB
:1012240000504D5C026E01504E58036E0350525CE8
:1012340002E10250515C0BE2040E0D6E0D2EFED73E
:1012440000000000A00E5126000E5222E3D70E012A
:10125400C29B000E4514036E4650FF0B046E04C07F
:1012640000F0016A00C0D4FFFF0E4514D36EC28B98
:10127400156A86923B504E5C02E13A504D5CD8A010
:101284006CD73F4A402A5ED7E6D33B503D5C02E12F
:101294003A503C5CD8B0ECD13CC000F03DC001F009
:1012A400000E026E036E400E046E060E056E000EF6
:1012B400066E000E076E64EC04F03AC004F03BC006
:1012C40005F0000E066E076E48EC05F000C053F002
:1012D40001C054F000C004F001C005F0000E066E19
:1012E400076E3CC000F03DC001F0000E026E036EBC
:1012F40064EC04F03AC004F03BC005F0000E066E46
:10130400076E48EC05F000C055F001C056F0000E21
:10131400011802E1000E001804E1010E556E000EE2
:10132400566E16C000F017C001F00036009001366A
:101334000F0E046E000E056E56DC00C041F001C0B5
:1013440042F0000E01BEFF0E436E446E3AC000F040
:101354003BC001F0000E026E036E41C004F042C0B7
:1013640005F043C006F044C007F064EC04F03CC050
:1013740004F03DC005F0000E066E076E48EC05F063
:1013840000C047F001C048F0000E496E4A6E41505B
:101394000008076E42C008F0000E085607C045F06A
:1013A40008C046F047500008056E48C006F0000E1D
:1013B400065605C04BF006C04CF00E01C29B000E51
:1013C4000714036E0850FF0B046E04C000F0016A9A
:1013D40000C0D4FFFF0E0714D36EC28BC691000E5B
:1013E4000514036E0650FF0B046E04C000F0016A7E
:1013F40000C0CEFFFF0E0514CD6EC6813F6A406A61
:10140400000E405C02E13E503F5CD8B030D14D6AE2
:101414004E6A4F6A506A8EB205D02F0E576E60EC3A
:1014240004F022D18EB405D0300E576E60EC04F077
:101434001BD18EB605D0310E576E60EC04F014D17A
:101444008EBA05D02E0E576E60EC04F00DD18EB816
:1014540005D02D0E576E60EC04F006D1155000082F
:10146400D8B07BD03B504E5C02E13A504D5CD8B0D2
:1014740074D086824D4A4E2A000E401802E1000EB6
:101484003F1822E1060E4E5C02E1400E4D5C1CE268
:101494004DC051F04EC052F04D504008016E4EC048
:1014A40002F0060E02560250525C02E10150515CF9
:1014B4000BE2040E0D6E0D2EFED700000000A00EF0
:1014C4005126000E5222E8D73E04016E026A000E35
:1014D400025A4050021802E101503F182BE1400E1D
:1014E4003A5C016E060E3B58026E4E50025C02E1FD
:1014F4004D50015C1FE2516A526A400E3A5C006E24
:10150400060E3B58016E00504D5C026E01504E5861
:10151400036E0350525C02E10250515C0BE2040E74
:101524000D6E0D2EFED700000000A00E5126000EF9
:101534005222E3D70E01C29B000E4514036E46509F
:10154400FF0B046E04C000F0016A00C0D4FFFF0E5C
:101554004514D36EC28B156A86921B500008D8B00E
:101564007CD03D50505C02E13C504F5CD8B075D00B
:10157400858685844F4A502A000E401802E1000EE9
:101584003F1821E15450505C02E153504F5C1BE280
:101594004FC051F050C052F04F50535C016E505048
:1015A4005458026E0250525C02E10150515C0BE24D
:1015B400040E0D6E0D2EFED700000000555051266E
:1015C40056505222E9D73E04016E026A000E025AB6
:1015D4004050021802E101503F182BE153503C5C8B
:1015E400016E54503D58026E5050025C02E14F505F
:1015F400015C1FE2516A526A53503C5C006E5450C5
:101604003D58016E00504F5C026E01505058036EFD
:101614000350525C02E10250515C0BE2040E0D6E69
:101624000D2EFED700000000555051265650522270
:10163400E3D70E01C691000E4B14036E4C50FF0B02
:10164400046E04C000F0016A00C0CEFFFF0E4B140C
:10165400CD6E1B6A85968594C6813B504E5C02E133
:101664003A504D5CD8A0D7D63F4A402AC9D6F3D1C8
:101674003D503B5C02E13C503A5CD8B0ECD13AC0FE
:1016840000F03BC001F0000E026E036E400E046ECB
:10169400060E056E000E066E000E076E64EC04F076
:1016A4003CC004F03DC005F0000E066E076E48EC29
:1016B40005F000C053F001C054F000C004F001C0B4
:1016C40005F0000E066E076E3AC000F03BC001F054
:1016D400000E026E036E64EC04F03CC004F03DC0E6
:1016E40005F0000E066E076E48EC05F000C055F0DC
:1016F40001C056F0000E011802E1000E001804E1CA
:10170400010E556E000E566E16C000F017C001F0A3
:101714000036009001360F0E046E000E056EF5ECD7
:1017240005F000C047F001C048F0000E01BEFF0EF6
:10173400496E4A6E3CC000F03DC001F0000E026EDE
:10174400036E47C004F048C005F049C006F04AC023
:1017540007F064EC04F03AC004F03BC005F0000E5E
:10176400066E076E48EC05F000C041F001C042F07F
:10177400000E436E446E41500008076E42C008F0EC
:10178400000E085607C045F008C046F04750000850
:10179400056E48C006F0000E065605C04BF006C0A4
:1017A4004CF00E01C29B000E0714036E0850FF0B91
:1017B400046E04C000F0016A00C0D4FFFF0E0714D9
:1017C400D36EC28BC691000E0514036E0650FF0B38
:1017D400046E04C000F0016A00C0CEFFFF0E0514C1
:1017E400CD6EC6813F6A406A000E405C02E13E5005
:1017F4003F5CD8B030D14D6A4E6A4F6A506A8EB29F
:1018040005D02F0E576E60EC04F022D18EB405D0B3
:10181400300E576E60EC04F01BD18EB605D0310E3D
:10182400576E60EC04F014D18EBA05D02E0E576EAC
:1018340060EC04F00DD18EB805D02D0E576E60EC1F
:1018440004F006D11B500008D8B07DD03D50505C48
:1018540002E13C504F5CD8B076D0858685844F4AEF
:10186400502A000E401802E1000E3F1822E1060E35
:10187400505C02E1400E4F5C1CE24FC051F050C07E
:1018840052F04F504008016E50C002F0060E02564E
:101894000250525C02E10150515C0BE2040E0D6EE9
:1018A4000D2EFED700000000A00E5126000E52227D
:1018B400E8D73E04016E026A000E025A4050021834
:1018C40002E101503F182BE1400E3C5C016E060E14
:1018D4003D58026E5050025C02E14F50015C1FE221
:1018E400516A526A400E3C5C006E060E3D58016E11
:1018F40000504F5C026E01505058036E0350525C0E
:1019040002E10250515C0BE2040E0D6E0D2EFED767
:1019140000000000A00E5126000E5222E3D70E0153
:10192400C691000E4B14036E4C50FF0B046E04C0A2
:1019340000F0016A00C0CEFFFF0E4B14CD6EC681CD
:101944001B6A8596859415500008D8B07AD03B5010
:101954004E5C02E13A504D5CD8B073D086824D4A59
:101964004E2A000E401802E1000E3F1821E15450A7
:101974004E5C02E153504D5C1BE24DC051F04EC031
:1019840052F04D50535C016E4E505458026E02504A
:10199400525C02E10150515C0BE2040E0D6E0D2EFF
:1019A400FED7000000005550512656505222E9D768
:1019B4003E04016E026A000E025A4050021802E10F
:1019C40001503F182BE153503C5C016E54503D587C
:1019D400026E4E50025C02E14D50015C1FE2516AFE
:1019E400526A53503A5C006E54503B58016E00509A
:1019F4004D5C026E01504E58036E0350525C02E17E
:101A04000250515C0BE2040E0D6E0D2EFED7000049
:101A140000005550512656505222E3D70E01C29B66
:101A2400000E4514036E4650FF0B046E04C000F014
:101A3400016A00C0D4FFFF0E4514D36E156A869266
:101A4400C28B3D50505C02E13C504F5CD8A0D7D6CD
:081A54003F4A402AC9D61200E6
:101A5C003E6A3F6A016A026A3D50025C02E13C50F8
:101A6C00015CD8B08AD0000E3B1802E1010E3A1886
:101A7C0003E13E4A3F2A04D0010E3E5E000E3F5A5F
:101A8C00800E006E800E3F18005C02E13E5007088D
:101A9C0002E23E6A3F6A800E3F18006E800E005CC8
:101AAC0002E1000E3E5C04E2070E3E6E000E3F6E3D
:101ABC0028D0868E869C869A869853D0868E868C65
:101ACC00869A86984ED0869E868C869A869849D021
:101ADC00869E868C868A869844D0869E869C868A2C
:101AEC0086983FD0869E869C868A86883AD0869E2B
:101AFC00869C869A868835D0868E869C869A868821
:101B0C0030D0000E3F1802E1000E3E18D2E0000E5D
:101B1C003F1802E1010E3E18D1E0000E3F1802E121
:101B2C00020E3E18D0E0000E3F1802E1030E3E18E4
:101B3C00CFE0000E3F1802E1040E3E18CEE0000E7E
:101B4C003F1802E1050E3E18CDE0000E3F1802E1F1
:101B5C00060E3E18CCE0000E3F1802E1070E3E18B0
:101B6C00CBE0270E0C6E4B0E0D6E0D2EFED70C2EF1
:101B7C00FCD70000014A022A6FD7869E869C869A63
:041B8C008698120025
:101B90003E6A3F6A3AC001F0006A3B500024026E80
:101BA000000E0120036E02C004F003C005F03CC02B
:101BB00007F0066A3D500626000E0722000E0318A5
:101BC00002E1000E021822E13E6A3F6A07503F5CC4
:101BD00002E106503E5C19E285868584040E0C6E97
:101BE000D30E0D6E0D2EFED70C2EFCD70000859661
:101BF0008594040E0C6ED30E0D6E0D2EFED70C2E9A
:101C0000FCD700003E4A3F2AE1D725D0000E071836
:101C100002E1000E06181FE13E6A3F6A05503F5C74
:101C200002E104503E5C17E28682040E0C6ED30E75
:101C30000D6E0D2EFED70C2EFCD700008692040EE2
:101C40000C6ED30E0D6E0D2EFED70C2EFCD70000A1
:081C50003E4A3F2AE3D71200CF
:101C58008790016A026A3B50025C02E13A50015CDB
:101C680017E2839A040E0C6ED30E0D6E0D2EFED75E
:101C78000C2EFCD70000838A040E0C6ED30E0D6E5A
:101C88000D2EFED70C2EFCD70000014A022AE3D7FE
:021C9800120038
:061C9A0056EC06F01200FA
:101CA0003A6A3B6A8DA2B9D08780020E0C6EE90EAB
:101CB0000D6E0D2EFED70C2EFCD70000839A020E5F
:101CC0000C6EE90E0D6E0D2EFED70C2EFCD700000B
:101CD000838A8EB001D001D0E8D787903A6A3B6AF8
:101CE000800E3B18006E800E070A005C02E1D00EE9
:101CF0003A5C17E2020E0C6EE90E0D6E0D2EFED749
:101D00000C2EFCD70000839A020E0C6EE90E0D6EAD
:101D10000D2EFED70C2EFCD70000838A3A4A3B2AB0
:101D2000DFD7858085B002D0859201D08582020EF2
:101D30000C6EE90E0D6E0D2EFED70C2EFCD700009A
:101D400085968594020E0C6EE90E0D6E0D2EFED753
:101D50000C2EFCD700008EB485868EB285848EB49E
:101D600003D08EB201D001D0E2D7859085B002D0E9
:101D7000859201D085823A6A3B6A800E3B18006EDC
:101D8000800E020A005C02E1580E3A5C11E2F50E88
:101D90000D6E0D2EFED7000085968594F50E0D6E06
:101DA0000D2EFED70000858685843A4A3B2AE5D76A
:101DB0008680020E0C6EE90E0D6E0D2EFED70C2ED7
:101DC000FCD700008692020E0C6EE90E0D6E0D2EF1
:101DD000FED70C2EFCD700008EB801D002D0868230
:101DE000E8D786903A6A3B6A800E3B18006E800EF8
:101DF000020A005C02E1580E3A5C0FE2F50E0D6E2D
:101E00000D2EFED700008692F50E0D6E0D2EFED71C
:0C1E1000000086823A4A3B2AE7D7120005
:101E1C00000E3B1802E1000E3A1802E1879001D047
:101E2C0087803E6A3F6A3D503F5C02E13C503E5C1D
:101E3C0024E2839A3EC057F03FC058F03E503C5CC1
:101E4C00596E3F503D585A6E96EC04F0838A3EC052
:101E5C0057F03FC058F03E503C5C596E3F503D58D7
:101E6C005A6E96EC04F08EB005D02C0E576E60ECCA
:0C1E7C0004F003D03E4A3F2AD6D71200E3
:061E88008DEC04F01200D5
:101E8E00156A190E166E176A4B0E186E196A1A6AB3
:101E9E001B6A0C0E0F01116F196B216B266B2E6BCB
:101EAE00020E886EFF0E896E800E8A6E8B6A8C6AA9
:101EBE00836A856A040E866E876A9F86FF0E9B6E06
:101ECE00000E9C6E9E845CEC06F00F0E0B6EF60EF2
:101EDE000C6EFB0E0D6E0D2EFED70C2EFCD70B2EA0
:101EEE00FAD71A6AF90ED46EC00ED36EF28E1B6A32
:101EFE00C28B010ECF6EF90ECE6EC00ECD6E156A70
:101F0E00C00EF26EC6DE0E01C6811A6A060E1A5C8D
:101F1E0014E2BCDE005210E01C0E386E000E396E5C
:101F2E001A503826D8B0392AA8DF38C0E1FF39C098
:101F3E00E2FF00C0E6FF1A2AE9D71C50410A09E168
:101F4E001D50000A06E12B0E576E60EC04F01A6A63
:101F5E00F5D21D501C24006E1E5000261F50002668
:101F6E0020500024016E21500118D8A4E2D280D254
:101F7E001DC017F0166A1E501626000E17222B0EC5
:101F8E00576E60EC04F01A6AD3D205D086940AD04C
:101F9E00868408D007D01D50000AF8E01D50010AB3
:101FAE00F7E0F8D72B0E576E60EC04F01A6AC0D229
:101FBE001EC03DF03C6A1F503C26000E3D221DC047
:101FCE003AF0000E3B6E23DF2B0E576E60EC04F0E2
:101FDE001A6AAED21EC03DF03C6A1F503C26000E5F
:101FEE003D221DC03AF0000E3B6E31DD2B0E576EBA
:101FFE0060EC04F01A6A9CD21DC019F0186A1E50CB
:10200E001826000E19222B0E576E60EC04F01A6A79
:10201E008FD28690859085B002D0859201D0858230
:10202E001DC03BF03A6A1E503A26000E3B221FC0DE
:10203E003DF03C6A20503C26000E3D22010E3E6EC5
:10204E008AEC06F02B0E576E60EC04F01A6A70D212
:10205E008690858085B002D0859201D085821DC084
:10206E003BF03A6A1E503A26000E3B221FC03DF04E
:10207E003C6A20503C26000E3D22010E3E6E8AEC3C
:10208E0006F02B0E576E60EC04F01A6A51D2868061
:10209E00858085B002D0859201D085821DC03BF02F
:1020AE003A6A1E503A26000E3B221FC03DF03C6A93
:1020BE0020503C26000E3D22010E3E6E8AEC06F0AC
:1020CE002B0E576E60EC04F01A6A32D28680859021
:1020DE0085B002D0859201D085821DC03BF03A6A50
:1020EE001E503A26000E3B221FC03DF03C6A205087
:1020FE003C26000E3D22010E3E6E8AEC06F02B0EA3
:10210E00576E60EC04F01A6A13D28690859085B0F3
:10211E0002D0859201D085821DC03BF03A6A1E50D6
:10212E003A26000E3B221FC03DF03C6A20503C2652
:10213E00000E3D22020E3E6E8AEC06F02B0E576EFE
:10214E0060EC04F01A6AF4D18690858085B002D0D6
:10215E00859201D085821DC03BF03A6A1E503A2608
:10216E00000E3B221FC03DF03C6A20503C26000E64
:10217E003D22020E3E6E8AEC06F02B0E576E60EC80
:10218E0004F01A6AD5D18680858085B002D08592FA
:10219E0001D085821DC03BF03A6A1E503A26000ED1
:1021AE003B221FC03DF03C6A20503C26000E3D22D3
:1021BE00020E3E6E8AEC06F02B0E576E60EC04F0AB
:1021CE001A6AB6D18680859085B002D0859201D0EC
:1021DE0085821DC03BF03A6A1E503A26000E3B2205
:1021EE001FC03DF03C6A20503C26000E3D22020EE0
:1021FE003E6E8AEC06F02B0E576E60EC04F01A6AF7
:10220E0097D18690859085B002D0859201D0858237
:10221E001DC03BF03A6A1E503A26000E3B221FC0EC
:10222E003DF03C6A20503C26000E3D22030E3E6ED1
:10223E008AEC06F02B0E576E60EC04F01A6A78D119
:10224E008690858085B002D0859201D085821DC092
:10225E003BF03A6A1E503A26000E3B221FC03DF05C
:10226E003C6A20503C26000E3D22030E3E6E8AEC48
:10227E0006F02B0E576E60EC04F01A6A59D1868068
:10228E00858085B002D0859201D085821DC03BF03D
:10229E003A6A1E503A26000E3B221FC03DF03C6AA1
:1022AE0020503C26000E3D22030E3E6E8AEC06F0B8
:1022BE002B0E576E60EC04F01A6A3AD18680859028
:1022CE0085B002D0859201D085821DC03BF03A6A5E
:1022DE001E503A26000E3B221FC03DF03C6A205095
:1022EE003C26000E3D22030E3E6E8AEC06F02B0EAF
:1022FE00576E60EC04F01A6A1BD18690859085B0FB
:10230E0002D0859201D085821DC03BF03A6A1E50E4
:10231E003A26000E3B221FC03DF03C6A20503C2660
:10232E00000E3D22040E3E6E8AEC06F02B0E576E0A
:10233E0060EC04F01A6AFCD08690858085B002D0DD
:10234E00859201D085821DC03BF03A6A1E503A2616
:10235E00000E3B221FC03DF03C6A20503C26000E72
:10236E003D22040E3E6E8AEC06F02B0E576E60EC8C
:10237E0004F01A6ADDD08680858085B002D0859201
:10238E0001D085821DC03BF03A6A1E503A26000EDF
:10239E003B221FC03DF03C6A20503C26000E3D22E1
:1023AE00040E3E6E8AEC06F02B0E576E60EC04F0B7
:1023BE001A6ABED08680859085B002D0859201D0F3
:1023CE0085821DC03BF03A6A1E503A26000E3B2213
:1023DE001FC03DF03C6A20503C26000E3D22040EEC
:1023EE003E6E8AEC06F02B0E576E60EC04F01A6A05
:1023FE009FD0D00E3A6E070E3B6E27DC2B0E576E1B
:10240E0060EC04F01A6A94D08690859085B002D064
:10241E00859201D085821DC03AF01EC03BF01FC0D0
:10242E003CF020C03DF0C8EC0DF02B0E576E60EC6A
:10243E0004F01A6A7DD08680858085B002D08592A0
:10244E0001D085821DC03AF01EC03BF01FC03CF08B
:10245E0020C03DF0C8EC0DF02B0E576E60EC04F072
:10246E001A6A66D03F0E576E60EC04F01A6A60D09E
:10247E001C50440AD8B47CD51C504B0AD8B485D510
:10248E001C504C0AD8B494D51C50540AD8B4A2D5BA
:10249E001C50560AD8B4B0D51C50570AD8B4B9D56A
:1024AE001C50590AD8B4D4D51C505B0AD8B4EFD5F9
:1024BE001C505D0AD8B40AD61C505E0AD8B425D674
:1024CE001C505F0AD8B440D61C50600AD8B45BD6F4
:1024DE001C50610AD8B476D61C50620AD8B491D674
:1024EE001C50630AD8B4ACD61C50640AD8B4C7D6F4
:1024FE001C50650AD8B4E2D61C50660AD8B4FDD674
:10250E001C50670AD8B418D71C50680AD8B433D7F1
:10251E001C50690AD8B44ED71C506E0AD8B469D76D
:10252E001C506F0AD8B470D71C50710A84E09AD729
:10253E0005D03F0E576E60EC04F01A6AE6D4FFD752
:02254E0000008B
:042550000000000087
:02255400000085
:042556000000000081
:02255A0000007F
:02255C0000007D
:02255E0000007B
:02256000000079
:020000040030CA
:0C0000002729E3BF7F3F0F1703000F020A
:00000001FF
