:04000000E8EF0BF02A
:10000800F2A402D0152AF2949EA002D0162A9E903D
:020018001100D5
:10001A000B1E0A1E091E081E082AD8B4092AD8B4BB
:08002A000A2AD8B40B2A1200C7
:100032000450085E0550D8A0053C095E0650D8A0C1
:10004200063C0A5E0750D8A0073C0B5E0336070E3B
:100052000C6E0334083609360A360B36045003A0F8
:100062000ED0085E0550D8A0053C095E0650D8A007
:10007200063C0A5E0750D8A0073C0B5E0DD008264E
:100082000550D8B0053C09260650D8B0063C0A26D1
:100092000750D8B0073C0B2603360C2EDAD70234B1
:1000A200083609360A360B36045003A00ED0085E15
:1000B2000550D8A0053C095E0650D8A0063C0A5E51
:1000C2000750D8A0073C0B5E0DD008260550D8B0CB
:1000D200053C09260650D8B0063C0A260750D8B07F
:1000E200073C0B260236070E0C6E02340836093620
:1000F2000A360B36045002A00ED0085E0550D8A076
:10010200053C095E0650D8A0063C0A5E0750D8A0FE
:10011200073C0B5E0DD008260550D8B0053C0926D9
:100122000650D8B0063C0A260750D8B0073C0B262A
:1001320002360C2EDAD70134083609360A360B3667
:10014200045002A00ED0085E0550D8A0053C095EFE
:100152000650D8A0063C0A5E0750D8A0073C0B5EAA
:100162000DD008260550D8B0053C09260650D8B057
:10017200063C0A260750D8B0073C0B260136070E6C
:100182000C6E0134083609360A360B36045001A0CB
:100192000ED0085E0550D8A0053C095E0650D8A0D6
:1001A200063C0A5E0750D8A0073C0B5E0DD008261D
:1001B2000550D8B0053C09260650D8B0063C0A26A0
:1001C2000750D8B0073C0B2601360C2EDAD7003484
:1001D200083609360A360B36045001A00ED0085EE6
:1001E2000550D8A0053C095E0650D8A0063C0A5E20
:1001F2000750D8A0073C0B5E0DD008260550D8B09A
:10020200053C09260650D8B0063C0A260750D8B04D
:10021200073C0B260036070E0C6E003408360936F2
:100222000A360B36045000A00ED0085E0550D8A046
:10023200053C095E0650D8A0063C0A5E0750D8A0CD
:10024200073C0B5E0DD008260550D8B0053C0926A8
:100252000650D8B0063C0A260750D8B0073C0B26F9
:1002620000360C2EDAD700B00ED004500826055006
:10027200D8B0053C09260650D8B0063C0A260750DD
:08028200D8B0073C0B26120066
:10028A000B6A0A6A096A00500402F4CF09F0F3CF34
:10029A0008F001500502F4CF0BF0F3CF0AF000503A
:1002AA000502F3500926F4500A22E86A0B2201508B
:1002BA000402F3500926F4500A22E86A0B2208C005
:1002CA0000F009C001F00AC002F00BC003F01200EE
:1002DA00000E585C02E10A0E575C0AE2080E0C6E28
:1002EA00A70E0D6E0D2EFED70C2EFCD700000000B7
:1002FA00000E585C02E1140E575C0AE2080E0C6EFE
:10030A00A70E0D6E0D2EFED70C2EFCD70000000096
:10031A00000E585C02E1280E575C0AE2070E0C6ECA
:10032A00B20E0D6E0D2EFED70C2EFCD7000000006B
:10033A00000E585C02E1500E575C0AE2060E0C6E83
:10034A00BD0E0D6E0D2EFED70C2EFCD70000000040
:10035A00000E585C02E1A00E575C09E2030E0C6E17
:10036A00DE0E0D6E0D2EFED70C2EFCD70000000EF1
:10037A00585C02E10A0E575C0AE2060E0C6EBD0ECC
:10038A000D6E0D2EFED70C2EFCD700000000000EBD
:10039A005A5C02E1140E595C0AE2060E0C6EBD0E9E
:1003AA000D6E0D2EFED70C2EFCD700000000000E9D
:1003BA005A5C02E1280E595C09E2050E0C6EC80E61
:1003CA000D6E0D2EFED70C2EFCD70000000E5A5CC7
:1003DA0002E1500E595C09E2040E0C6ED30E0D6E4A
:1003EA000D2EFED70C2EFCD70000000E5A5C02E13F
:1003FA00A00E595C09E2020E0C6EE90E0D6E0D2E6E
:10040A00FED70C2EFCD70000016A026A800E021881
:10041A00006E800E1918005C02E11850015C09E2B6
:10042A00040E0D6E0D2EFED700000000014A022AAE
:04043A00EDD71200E8
:0E043E00ACB202D00000FCD757C0ADFF1200D8
:10044C00220E0C6E086A096A0A6A0B6A0C06D8B48A
:10045C001FD0D8900B320A320932083203320232E2
:10046C0001320032D8A0F2D70C06D8B409D004500F
:10047C0008260550092206500A2207500B22EAD7FB
:10048C00045008260550092206500A2207500B2258
:02049C0012004C
:10049E000450000A12E10550000A0FE10650000A4E
:1004AE000CE10750000A09E1FF0E006EFF0E016E0F
:1004BE00FF0E026E7F0E036E97D00C6A07BE0C2ADB
:1004CE000D6A0B6A0A6A096A086A03500210011063
:1004DE000010D8B484D0035007180E6E0EBE0D1E39
:1004EE0007AE0BD0041E051E061E071E042AD8B426
:1004FE00052AD8B4062AD8B4072A03AE0BD0001E9C
:10050E00011E021E031E002AD8B4012AD8B4022AE4
:10051E00D8B4032A035007100E6E0EBE1CD082DD17
:10052E000CBE36D00DAE5BD0001E011E021E031E89
:10053E00002AD8B4012AD8B4022AD8B4032A081E35
:10054E00091E0A1E0B1E082AD8B4092AD8B40A2A74
:10055E00D8B40B2A44D007AE15D003BE0DD003502D
:10056E000B6E02500A6E0150096E0050086E036A3F
:10057E00026A016A006AD6D7036A026A016A006AD1
:10058E00002A000C031E021E011E001E0C8EC7D771
:10059E00082AD8B4092AD8B40A2AD8B40B2A045087
:1005AE00085CD8A4BFD70550095CD8A4BBD70650A9
:1005BE000A5CD8A4B7D707500B5CD8A4B3D70B6A84
:1005CE000A6A096A086A002AD8B4012AD8B4022A2B
:1005DE00D8B4032A03AEA6D70E6A0E88FF0C0E6A95
:0A05EE000CA001D013DD000F120075
:1005F8003E6A3F6A016A026A3D50025C02E13C5071
:10060800015CD8B08AD0000E3B1802E1010E3A18FE
:1006180003E13E4A3F2A04D0010E3E5E000E3F5AD7
:10062800800E006E800E3F18005C02E13E50070805
:1006380002E23E6A3F6A800E3F18006E800E005C40
:1006480002E1000E3E5C04E2070E3E6E000E3F6EB5
:1006580028D08C8E8C9C8C9A8C9853D08C8E8C8CB9
:100668008C9A8C984ED08C9E8C8C8C9A8C9849D075
:100678008C9E8C8C8C8A8C9844D08C9E8C9C8C8A7A
:100688008C983FD08C9E8C9C8C8A8C883AD08C9E7F
:100698008C9C8C9A8C8835D08C8E8C9C8C9A8C886F
:1006A80030D0000E3F1802E1000E3E18D2E0000ED6
:1006B8003F1802E1010E3E18D1E0000E3F1802E19A
:1006C800020E3E18D0E0000E3F1802E1030E3E185D
:1006D800CFE0000E3F1802E1040E3E18CEE0000EF7
:1006E8003F1802E1050E3E18CDE0000E3F1802E16A
:1006F800060E3E18CCE0000E3F1802E1070E3E1829
:10070800CBE0270E0C6E4B0E0D6E0D2EFED70C2E69
:10071800FCD70000014A022A6FD78C9E8C9C8C9AC9
:040728008C98120097
:10072C003F6A406A416A426A436A446A456A466A59
:10073C00476A486A496A4A6A4B6A4C6A4D6A4E6A09
:10074C004F6A506A516A526A3B503D1802E13C5064
:10075C003A18D8A4E7D01AC000F01BC001F000363C
:10076C00009001360F0E046E000E056E88DD00C081
:10077C0041F001C042F0000E01BEFF0E436E446E0C
:10078C0041500008056E42C006F0000E065605C02A
:10079C0045F006C046F0F29A000E0514036E0650A2
:1007AC00FF0B046E04C000F0016A00C0D7FFFF0EFF
:1007BC000514D66EF28A3F6A406A000E405C02E174
:1007CC003E503F5CD8B0ACD04D6A4E6A81B204D07A
:1007DC002F0E576E2EDEA1D081B404D0300E576E82
:1007EC0028DE9BD081B604D0310E576E22DE95D018
:1007FC0081BA04D02E0E576E1CDE8FD081B804D077
:10080C002D0E576E16DE89D015500008D8B07ED04C
:10081C003B504E5C02E13A504D5CD8B077D08C82A4
:10082C008B868B844D4A4E2A000E401802E1000E36
:10083C003F1822E1060E4E5C02E1400E4D5C1CE2BC
:10084C004DC051F04EC052F04D504008016E4EC09C
:10085C0002F0060E02560250525C02E10150515C4D
:10086C000BE2040E0D6E0D2EFED700000000A00E44
:10087C005126000E5222E8D73E04016E026A000E89
:10088C00025A4050021802E101503F182BE1400E71
:10089C003A5C016E060E3B58026E4E50025C02E151
:1008AC004D50015C1FE2516A526A400E3A5C006E78
:1008BC00060E3B58016E00504D5C026E01504E58B6
:1008CC00036E0350525C02E10250515C0BE2040EC9
:1008DC000D6E0D2EFED700000000A00E5126000E4E
:1008EC005222E3D7F29A000E4514036E4650FF0BCA
:1008FC00046E04C000F0016A00C0D7FFFF0E45145F
:10090C00D66EF28A156A8C928B948B963B504E5C09
:10091C0002E13A504D5CD8A059D73F4A402A4DD7F6
:10092C002DEF0AF0000E3B1802E1000E3A18D8A485
:10093C00D6D01AC000F01BC001F0230E046E000EBE
:10094C00056E9DDC00C047F001C048F0000E01BEF2
:10095C00FF0E496E4A6E47500008056E48C006F0FF
:10096C00000E065605C04BF006C04CF09D90000ED4
:10097C000514036E0650FF0B046E04C000F0016AF0
:10098C0000C0CFFFFF0E0514CE6E9D803F6A406AFB
:10099C00000E405C02E13E503F5CD8B09ED04F6AE6
:1009AC00506A81B204D02F0E576E43DD93D081B4C0
:1009BC0004D0300E576E3DDD8DD081B604D0310E93
:1009CC00576E37DD87D016500008D8B07CD03D501C
:1009DC00505C02E13C504F5CD8B075D08B868B8458
:1009EC004F4A502A000E401802E1000E3F1822E137
:1009FC00060E505C02E1400E4F5C1CE24FC051F001
:100A0C0050C052F04F504008016E50C002F0060E1C
:100A1C0002560250525C02E10150515C0BE2040E92
:100A2C000D6E0D2EFED700000000A00E5126000EFC
:100A3C005222E8D73E04016E026A000E025A405060
:100A4C00021802E101503F182BE1400E3C5C016E94
:100A5C00060E3D58026E5050025C02E14F50015C94
:100A6C001FE2516A526A400E3C5C006E060E3D5805
:100A7C00016E00504F5C026E01505058036E0350D3
:100A8C00525C02E10250515C0BE2040E0D6E0D2E15
:100A9C00FED700000000A00E5126000E5222E3D714
:100AAC009D90000E4B14036E4C50FF0B046E04C053
:100ABC0000F0016A00C0CFFFFF0E4B14CE6E9D807C
:100ACC00166A8B968B943D50505C02E13C504F5C07
:100ADC00D8A067D73F4A402A5BD72DEF0AF0000E0B
:100AEC003D1802E1000E3C18D8A4D0D01AC000F07A
:100AFC001BC001F0230E046E000E056E45EC01F0D8
:100B0C0000C041F001C042F0000E01BEFF0E436E6A
:100B1C00446E41500008056E42C006F0000E0656A9
:100B2C0005C045F006C046F0F29A000E0514036E9F
:100B3C000650FF0B046E04C000F0016A00C0D7FF22
:100B4C00FF0E0514D66EF28A3F6A406A000E405CB6
:100B5C0002E13E503F5CD8B098D04D6A4E6A4F6A65
:100B6C00506A81BA04D02E0E576E63DC8BD081B8DC
:100B7C0004D02D0E576E5DDC85D015500008D8B012
:100B8C007AD03B504E5C02E13A504D5CD8B073D0F9
:100B9C008C824D4A4E2A000E401802E1000E3F187E
:100BAC0022E1060E4E5C02E1400E4D5C1CE24DC093
:100BBC0051F04EC052F04D504008016E4EC002F044
:100BCC00060E02560250525C02E10150515C0BE2DF
:100BDC00040E0D6E0D2EFED700000000A00E512647
:100BEC00000E5222E8D73E04016E026A000E025A31
:100BFC004050021802E101503F182BE1400E3A5CC4
:100C0C00016E060E3B58026E4E50025C02E14D50D6
:100C1C00015C1FE2516A526A400E3A5C006E060E8D
:100C2C003B58016E00504D5C026E01504E58036EE5
:100C3C000350525C02E10250515C0BE2040E0D6E4B
:100C4C000D2EFED700000000A00E5126000E5222E1
:100C5C00E3D7F29A000E4514036E4650FF0B046E58
:100C6C0004C000F0016A00C0D7FFFF0E4514D66E19
:100C7C00F28A156A8C923B504E5C02E13A504D5C04
:100C8C00D8A06FD73F4A402A61D7E1D33B503D5C97
:100C9C0002E13A503C5CD8B0EAD13CC000F03DC017
:100CAC0001F0000E026E036E400E046E060E056E11
:100CBC00000E066E000E076E26EC02F03AC004F031
:100CCC003BC005F0000E066E076E4FEC02F000C044
:100CDC0053F001C054F000C004F001C005F0000E48
:100CEC00066E076E3CC000F03DC001F0000E026EB7
:100CFC00036E26EC02F03AC004F03BC005F0000E87
:100D0C00066E076E4FEC02F000C055F001C056F0B5
:100D1C00000E011802E1000E001804E1010E556EE0
:100D2C00000E566E1AC000F01BC001F00036009089
:100D3C0001360F0E046E000E056E45EC01F000C07E
:100D4C0041F001C042F0000E01BEFF0E436E446E36
:100D5C003AC000F03BC001F0000E026E036E41C0C1
:100D6C0004F042C005F043C006F044C007F026EC86
:100D7C0002F03CC004F03DC005F0000E066E076E9C
:100D8C004FEC02F000C047F001C048F0000E496E75
:100D9C004A6E41500008076E42C008F0000E08561B
:100DAC0007C045F008C046F047500008056E48C023
:100DBC0006F0000E065605C04BF006C04CF0F29A39
:100DCC00000E0714036E0850FF0B046E04C000F0F5
:100DDC00016A00C0D7FFFF0E0714D66EF28A9D90F1
:100DEC00000E0514036E0650FF0B046E04C000F0D9
:100DFC00016A00C0CFFFFF0E0514CE6E9D803F6AC6
:100E0C00406A000E405C02E13E503F5CD8B02ED1EF
:100E1C004D6A4E6A4F6A506A81B205D02F0E576EDA
:100E2C001FEC02F020D181B405D0300E576E1FECB0
:100E3C0002F019D181B605D0310E576E1FEC02F0BD
:100E4C0012D181BA05D02E0E576E1FEC02F00BD1C9
:100E5C0081B805D02D0E576E1FEC02F004D1155041
:100E6C000008D8B07AD03B504E5C02E13A504D5C51
:100E7C00D8B073D08C824D4A4E2A000E401802E135
:100E8C00000E3F1822E1060E4E5C02E1400E4D5C56
:100E9C001CE24DC051F04EC052F04D504008016E56
:100EAC004EC002F0060E02560250525C02E1015096
:100EBC00515C0BE2040E0D6E0D2EFED700000000EF
:100ECC00A00E5126000E5222E8D73E04016E026A93
:100EDC00000E025A4050021802E101503F182BE15B
:100EEC00400E3A5C016E060E3B58026E4E50025C90
:100EFC0002E14D50015C1FE2516A526A400E3A5CAD
:100F0C00006E060E3B58016E00504D5C026E015097
:100F1C004E58036E0350525C02E10250515C0BE2DE
:100F2C00040E0D6E0D2EFED700000000A00E5126F3
:100F3C00000E5222E3D7F29A000E4514036E46506F
:100F4C00FF0B046E04C000F0016A00C0D7FFFF0E57
:100F5C004514D66EF28A156A8C9216500008D8B0D9
:100F6C007BD03D50505C02E13C504F5CD8B074D00B
:100F7C008B868B844F4A502A000E401802E1000EDB
:100F8C003F1821E15450505C02E153504F5C1BE27E
:100F9C004FC051F050C052F04F50535C016E505046
:100FAC005458026E0250525C02E10150515C0BE24B
:100FBC00040E0D6E0D2EFED700000000555051266C
:100FCC0056505222E9D73E04016E026A000E025AB4
:100FDC004050021802E101503F182BE153503C5C89
:100FEC00016E54503D58026E5050025C02E14F505D
:100FFC00015C1FE2516A526A53503C5C006E5450C3
:10100C003D58016E00504F5C026E01505058036EFB
:10101C000350525C02E10250515C0BE2040E0D6E67
:10102C000D2EFED70000000055505126565052226E
:10103C00E3D79D90000E4B14036E4C50FF0B046EC7
:10104C0004C000F0016A00C0CFFFFF0E4B14CE6E3F
:10105C00166A8B968B949D803B504E5C02E13A5005
:10106C004D5CD8A0D9D63F4A402ACBD6F0D13D50C2
:10107C003B5C02E13C503A5CD8B0E9D13AC000F09C
:10108C003BC001F0000E026E036E400E046E060EA5
:10109C00056E000E066E000E076E26EC02F03CC0CC
:1010AC0004F03DC005F0000E066E076E4FEC02F02A
:1010BC0000C053F001C054F000C004F001C005F0B2
:1010CC00000E066E076E3AC000F03BC001F0000E39
:1010DC00026E036E26EC02F03CC004F03DC005F03D
:1010EC00000E066E076E4FEC02F000C055F001C00A
:1010FC0056F0000E011802E1000E001804E1010E7A
:10110C00556E000E566E1AC000F01BC001F0003672
:10111C00009001360F0E046E000E056E45EC01F0CA
:10112C0000C047F001C048F0000E01BEFF0E496E32
:10113C004A6E3CC000F03DC001F0000E026E036E22
:10114C0047C004F048C005F049C006F04AC007F09B
:10115C0026EC02F03AC004F03BC005F0000E066E1F
:10116C00076E4FEC02F000C041F001C042F0000EDF
:10117C00436E446E41500008076E42C008F0000EEA
:10118C00085607C045F008C046F047500008056EE9
:10119C0048C006F0000E065605C04BF006C04CF0D9
:1011AC00F29A000E0714036E0850FF0B046E04C075
:1011BC0000F0016A00C0D7FFFF0E0714D66EF28A4A
:1011CC009D90000E0514036E0650FF0B046E04C0B8
:1011DC0000F0016A00C0CFFFFF0E0514CE6E9D809B
:1011EC003F6A406A000E405C02E13E503F5CD8B062
:1011FC002ED14D6A4E6A4F6A506A81B205D02F0EBD
:10120C00576E1FEC02F020D181B405D0300E576E12
:10121C001FEC02F019D181B605D0310E576E1FECC0
:10122C0002F012D181BA05D02E0E576E1FEC02F0CF
:10123C000BD181B805D02D0E576E1FEC02F004D1E6
:10124C0016500008D8B07CD03D50505C02E13C50A8
:10125C004F5CD8B075D08B868B844F4A502A000EC9
:10126C00401802E1000E3F1822E1060E505C02E12C
:10127C00400E4F5C1CE24FC051F050C052F04F502A
:10128C004008016E50C002F0060E02560250525C2D
:10129C0002E10150515C0BE2040E0D6E0D2EFED7D7
:1012AC0000000000A00E5126000E5222E8D73E048A
:1012BC00016E026A000E025A4050021802E10150FF
:1012CC003F182BE1400E3C5C016E060E3D58026E41
:1012DC005050025C02E14F50015C1FE2516A526AAD
:1012EC00400E3C5C006E060E3D58016E00504F5C8B
:1012FC00026E01505058036E0350525C02E10250D2
:10130C00515C0BE2040E0D6E0D2EFED7000000009A
:10131C00A00E5126000E5222E3D79D90000E4B14C6
:10132C00036E4C50FF0B046E04C000F0016A00C049
:10133C00CFFFFF0E4B14CE6E9D80166A8B968B944E
:10134C0015500008D8B079D03B504E5C02E13A50B1
:10135C004D5CD8B072D08C824D4A4E2A000E40188B
:10136C0002E1000E3F1821E154504E5C02E1535053
:10137C004D5C1BE24DC051F04EC052F04D50535CD1
:10138C00016E4E505458026E0250525C02E10150F4
:10139C00515C0BE2040E0D6E0D2EFED7000000000A
:1013AC005550512656505222E9D73E04016E026A1E
:1013BC00000E025A4050021802E101503F182BE176
:1013CC0053503C5C016E54503D58026E4E50025CC2
:1013DC0002E14D50015C1FE2516A526A53503A5C73
:1013EC00006E54503B58016E00504D5C026E015023
:1013FC004E58036E0350525C02E10250515C0BE2FA
:10140C00040E0D6E0D2EFED7000000005550512617
:10141C0056505222E3D7F29A000E4514036E4650F2
:10142C00FF0B046E04C000F0016A00C0D7FFFF0E72
:10143C004514D66E156A8C92F28A3D50505C02E1CE
:10144C003C504F5CD8A0D9D63F4A402ACBD612008C
:10145C003A6A3B6A80A2B9D08D80020E0C6EE90EFE
:10146C000D6E0D2EFED70C2EFCD70000899A020EA5
:10147C000C6EE90E0D6E0D2EFED70C2EFCD7000057
:10148C00898A81B001D001D0E8D78D903A6A3B6A45
:10149C00800E3B18006E800E070A005C02E1D00E35
:1014AC003A5C17E2020E0C6EE90E0D6E0D2EFED795
:1014BC000C2EFCD70000899A020E0C6EE90E0D6EF4
:1014CC000D2EFED70C2EFCD70000898A3A4A3B2AF7
:1014DC00DFD78B808BB002D08B9201D08B82020E27
:1014EC000C6EE90E0D6E0D2EFED70C2EFCD70000E7
:1014FC008B968B94020E0C6EE90E0D6E0D2EFED794
:10150C000C2EFCD7000081B48B8681B28B8481B405
:10151C0003D081B201D001D0E2D78B908BB002D036
:10152C008B9201D08B823A6A3B6A800E3B18006E1C
:10153C00800E020A005C02E1580E3A5C11E2F50ED4
:10154C000D6E0D2EFED700008B968B94F50E0D6E46
:10155C000D2EFED700008B868B843A4A3B2AE5D7AA
:10156C008C80020E0C6EE90E0D6E0D2EFED70C2E1D
:10157C00FCD700008C92020E0C6EE90E0D6E0D2E37
:10158C00FED70C2EFCD7000081B801D002D08C8283
:10159C00E8D78C903A6A3B6A800E3B18006E800E3E
:1015AC00020A005C02E1580E3A5C0FE2F50E0D6E79
:1015BC000D2EFED700008C92F50E0D6E0D2EFED763
:0C15CC0000008C823A4A3B2AE7D712004C
:0A15D800000E9EBA010E006E120014
:1015E2000900F5CFE6FF0006FBE10106F9E1120072
:1015F2003E0E346E040E356E570E366E000E376E8A
:10160200520E306E170E316E000E326E000E336EB9
:10161200D80E286E150E296E000E2A6E000E2B6E45
:10162200FF0E2C6EFF0E2D6E000E2E6E000E2F6E14
:10163200AC8A900EAB6E948E949C9EAA03D0AECFD1
:0616420000F0FBD71200CE
:101648003E6A3F6A3AC001F0006A3B500024026ECD
:10165800000E0120036E02C004F003C005F03CC078
:1016680007F0066A3D500626000E0722000E0318F2
:1016780002E1000E021822E13E6A3F6A07503F5C11
:1016880002E106503E5C19E28B868B84040E0C6ED8
:10169800D30E0D6E0D2EFED70C2EFCD700008B96A8
:1016A8008B94040E0C6ED30E0D6E0D2EFED70C2EE1
:1016B800FCD700003E4A3F2AE1D725D0000E071884
:1016C80002E1000E06181FE13E6A3F6A05503F5CC2
:1016D80002E104503E5C17E28C82040E0C6ED30EBD
:1016E8000D6E0D2EFED70C2EFCD700008C92040E2A
:1016F8000C6ED30E0D6E0D2EFED70C2EFCD70000EF
:081708003E4A3F2AE3D712001C
:101710008D90016A026A3B50025C02E13A50015C22
:1017200017E2899A040E0C6ED30E0D6E0D2EFED7A5
:101730000C2EFCD70000898A040E0C6ED30E0D6EA1
:101740000D2EFED70C2EFCD70000014A022AE3D74B
:02175000120085
:10175200AECF01F0ABA202D0AB98AB8801C000F0D3
:02176200120073
:10176400000E3B1802E1000E3A1802E18D9001D000
:101774008D803E6A3F6A3D503F5C02E13C503E5CD6
:1017840024E2899A3EC057F03FC058F03E503C5C7A
:10179400596E3F503D585A6E6DEC01F0898A3EC037
:1017A40057F03FC058F03E503C5C596E3F503D5896
:1017B4005A6E6DEC01F081B005D02C0E576E1FEC03
:0C17C40002F003D03E4A3F2AD6D71200A4
:1017D000156A166A176A4B0E186E196A190E1A6E78
:1017E0001B6A0C0E0F01386F396B3A6B3B6B3C6B0D
:1017F000020E926EFF0E936E800E946E956A966A3C
:10180000896A8B6A040E8C6E8D6AB886B06AFF0E88
:10181000AF6EAC84EEDE0F0E0B6EF60E0C6EFB0E92
:101820000D6E0D2EFED70C2EFCD70B2EFAD7176A95
:10183000880ED56EF90ED76EC00ED66EF28E166A71
:10184000F28A010ECD6EF90ECF6EC00ECE6E156A05
:10185000C00EF26E03DE9D80176A060E175C14E25E
:10186000BBDE005210E01C0E386E000E396E1750B1
:101870003826D8B0392A6DDF38C0E1FF39C0E2FF21
:1018800000C0E6FF172AE9D71C50410A09E11D50A4
:10189000000A06E12B0E576E1FEC02F0176AF4D215
:1018A0001D501C24006E1E5000261F500026205084
:1018B0000024016E21500118D8A4E1D27FD21DC0AE
:1018C0001BF01A6A1E501A26000E1B222B0E576E92
:1018D0001FEC02F0176AD2D205D08C940AD08C8407
:1018E00008D007D01D50000AF8E01D50010AF7E0AB
:1018F000F8D72B0E576E1FEC02F0176ABFD21EC02E
:101900003DF03C6A1F503C26000E3D221DC03AF0BF
:10191000000E3B6E27DF2B0E576E1FEC02F0176A8E
:10192000ADD21EC03DF03C6A1F503C26000E3D2249
:101930001DC03AF0000E3B6EFCEC02F02B0E576E11
:101940001FEC02F0176A9AD21DC019F0186A1E50D7
:101950001826000E19222B0E576E1FEC02F0176A84
:101960008DD28C908B908BB002D08B9201D08B82D9
:101970001DC03BF03A6A1E503A26000E3B221FC0A3
:101980003DF03C6A20503C26000E3D22010E3E6E8A
:1019900096EC03F02B0E576E1FEC02F0176A6ED216
:1019A0008C908B808BB002D08B9201D08B821DC02B
:1019B0003BF03A6A1E503A26000E3B221FC03DF013
:1019C0003C6A20503C26000E3D22010E3E6E96ECF5
:1019D00003F02B0E576E1FEC02F0176A4FD28C806B
:1019E0008B808BB002D08B9201D08B821DC03BF0DC
:1019F0003A6A1E503A26000E3B221FC03DF03C6A58
:101A000020503C26000E3D22010E3E6E96EC03F067
:101A10002B0E576E1FEC02F0176A30D28C808B9021
:101A20008BB002D08B9201D08B821DC03BF03A6A02
:101A30001E503A26000E3B221FC03DF03C6A20504B
:101A40003C26000E3D22010E3E6E96EC03F02B0E5E
:101A5000576E1FEC02F0176A11D28C908B908BB0EE
:101A600002D08B9201D08B821DC03BF03A6A1E508F
:101A70003A26000E3B221FC03DF03C6A20503C2617
:101A8000000E3D22020E3E6E96EC03F02B0E576EBA
:101A90001FEC02F0176AF2D18C908B808BB002D0D1
:101AA0008B9201D08B821DC03BF03A6A1E503A26C1
:101AB000000E3B221FC03DF03C6A20503C26000E29
:101AC0003D22020E3E6E96EC03F02B0E576E1FEC7D
:101AD00002F0176AD3D18C808B808BB002D08B92AE
:101AE00001D08B821DC03BF03A6A1E503A26000E90
:101AF0003B221FC03DF03C6A20503C26000E3D2298
:101B0000020E3E6E96EC03F02B0E576E1FEC02F0A9
:101B1000176AB4D18C808B908BB002D08B9201D09D
:101B20008B821DC03BF03A6A1E503A26000E3B22C3
:101B30001FC03DF03C6A20503C26000E3D22020EA4
:101B40003E6E96EC03F02B0E576E1FEC02F0176AF8
:101B500095D18C908B908BB002D08B9201D08B82E0
:101B60001DC03BF03A6A1E503A26000E3B221FC0B1
:101B70003DF03C6A20503C26000E3D22030E3E6E96
:101B800096EC03F02B0E576E1FEC02F0176A76D11D
:101B90008C908B808BB002D08B9201D08B821DC039
:101BA0003BF03A6A1E503A26000E3B221FC03DF021
:101BB0003C6A20503C26000E3D22030E3E6E96EC01
:101BC00003F02B0E576E1FEC02F0176A57D18C8072
:101BD0008B808BB002D08B9201D08B821DC03BF0EA
:101BE0003A6A1E503A26000E3B221FC03DF03C6A66
:101BF00020503C26000E3D22030E3E6E96EC03F074
:101C00002B0E576E1FEC02F0176A38D18C808B9028
:101C10008BB002D08B9201D08B821DC03BF03A6A10
:101C20001E503A26000E3B221FC03DF03C6A205059
:101C30003C26000E3D22030E3E6E96EC03F02B0E6A
:101C4000576E1FEC02F0176A19D18C908B908BB0F5
:101C500002D08B9201D08B821DC03BF03A6A1E509D
:101C60003A26000E3B221FC03DF03C6A20503C2625
:101C7000000E3D22040E3E6E96EC03F02B0E576EC6
:101C80001FEC02F0176AFAD08C908B808BB002D0D8
:101C90008B9201D08B821DC03BF03A6A1E503A26CF
:101CA000000E3B221FC03DF03C6A20503C26000E37
:101CB0003D22040E3E6E96EC03F02B0E576E1FEC89
:101CC00002F0176ADBD08C808B808BB002D08B92B5
:101CD00001D08B821DC03BF03A6A1E503A26000E9E
:101CE0003B221FC03DF03C6A20503C26000E3D22A6
:101CF000040E3E6E96EC03F02B0E576E1FEC02F0B6
:101D0000176ABCD08C808B908BB002D08B9201D0A4
:101D10008B821DC03BF03A6A1E503A26000E3B22D1
:101D20001FC03DF03C6A20503C26000E3D22040EB0
:101D30003E6E96EC03F02B0E576E1FEC02F0176A06
:101D40009DD0D00E3A6E070E3B6EE2DC2B0E576E26
:101D50001FEC02F0176A92D08C908B908BB002D05F
:101D60008B9201D08B821DC03AF01EC03BF01FC089
:101D70003CF020C03DF068DC2B0E576E1FEC02F0EB
:101D8000176A7CD08C808B808BB002D08B9201D074
:101D90008B821DC03AF01EC03BF01FC03CF020C03B
:101DA0003DF052DC2B0E576E1FEC02F0176A66D026
:101DB0003F0E576E1FEC02F0176A60D01C50440AA9
:101DC000D8B47DD51C504B0AD8B486D51C504C0ACB
:101DD000D8B495D51C50540AD8B4A3D51C50560A73
:101DE000D8B4B2D51C50570AD8B4BBD51C50590A28
:101DF000D8B4D6D51C505B0AD8B4F1D51C505D0AB6
:101E0000D8B40CD61C505E0AD8B427D61C505F0A32
:101E1000D8B442D61C50600AD8B45DD61C50610AB2
:101E2000D8B478D61C50620AD8B493D61C50630A32
:101E3000D8B4AED61C50640AD8B4C9D61C50650AB2
:101E4000D8B4E4D61C50660AD8B4FFD61C50670A32
:101E5000D8B41AD71C50680AD8B435D71C50690AB0
:101E6000D8B450D71C506E0AD8B46BD71C506F0A28
:101E7000D8B472D71C50710A85E09AD705D03F0EAE
:0C1E8000576E1FEC02F0176AE7D4FFD782
:021E8C00000054
:041E8E000000000050
:021E920000004E
:041E9400000000004A
:021E9800000048
:021E9A00000046
:021E9C00000044
:021E9E00000042
:020000040030CA
:0D000100331F3CFFBF81FF0FC00FE00F4019
:00000001FF
